{
  "_format": "hh-sol-artifact-1",
  "contractName": "AgentMarketplace",
  "sourceName": "contracts/AgentMarketplace.sol",
  "abi": [
    {
      "inputs": [
        {
          "internalType": "address",
          "name": "_treasury",
          "type": "address"
        },
        {
          "internalType": "address",
          "name": "_monToken",
          "type": "address"
        }
      ],
      "stateMutability": "nonpayable",
      "type": "constructor"
    },
    {
      "inputs": [],
      "name": "CannotBuyOwnListing",
      "type": "error"
    },
    {
      "inputs": [],
      "name": "CannotBuyOwnService",
      "type": "error"
    },
    {
      "inputs": [],
      "name": "CannotInvestInSelf",
      "type": "error"
    },
    {
      "inputs": [],
      "name": "EnforcedPause",
      "type": "error"
    },
    {
      "inputs": [],
      "name": "ExpectedPause",
      "type": "error"
    },
    {
      "inputs": [],
      "name": "InsufficientBalance",
      "type": "error"
    },
    {
      "inputs": [],
      "name": "InsufficientQuantity",
      "type": "error"
    },
    {
      "inputs": [],
      "name": "InvalidAddress",
      "type": "error"
    },
    {
      "inputs": [],
      "name": "InvalidFeePercent",
      "type": "error"
    },
    {
      "inputs": [],
      "name": "InvalidPrice",
      "type": "error"
    },
    {
      "inputs": [],
      "name": "InvalidProfitShare",
      "type": "error"
    },
    {
      "inputs": [],
      "name": "InvalidQuantity",
      "type": "error"
    },
    {
      "inputs": [],
      "name": "InvestmentNotActive",
      "type": "error"
    },
    {
      "inputs": [],
      "name": "ListingExpired",
      "type": "error"
    },
    {
      "inputs": [],
      "name": "ListingNotActive",
      "type": "error"
    },
    {
      "inputs": [],
      "name": "NotInvestmentAgent",
      "type": "error"
    },
    {
      "inputs": [],
      "name": "NotListingOwner",
      "type": "error"
    },
    {
      "inputs": [],
      "name": "NotServiceOwner",
      "type": "error"
    },
    {
      "inputs": [
        {
          "internalType": "address",
          "name": "owner",
          "type": "address"
        }
      ],
      "name": "OwnableInvalidOwner",
      "type": "error"
    },
    {
      "inputs": [
        {
          "internalType": "address",
          "name": "account",
          "type": "address"
        }
      ],
      "name": "OwnableUnauthorizedAccount",
      "type": "error"
    },
    {
      "inputs": [],
      "name": "ReentrancyGuardReentrantCall",
      "type": "error"
    },
    {
      "inputs": [],
      "name": "ServiceNotActive",
      "type": "error"
    },
    {
      "inputs": [],
      "name": "TransferFailed",
      "type": "error"
    },
    {
      "anonymous": false,
      "inputs": [
        {
          "indexed": true,
          "internalType": "address",
          "name": "recipient",
          "type": "address"
        },
        {
          "indexed": false,
          "internalType": "uint256",
          "name": "amount",
          "type": "uint256"
        }
      ],
      "name": "FeesWithdrawn",
      "type": "event"
    },
    {
      "anonymous": false,
      "inputs": [
        {
          "indexed": true,
          "internalType": "uint256",
          "name": "investmentId",
          "type": "uint256"
        },
        {
          "indexed": true,
          "internalType": "address",
          "name": "investor",
          "type": "address"
        },
        {
          "indexed": true,
          "internalType": "address",
          "name": "agent",
          "type": "address"
        },
        {
          "indexed": false,
          "internalType": "uint256",
          "name": "amount",
          "type": "uint256"
        },
        {
          "indexed": false,
          "internalType": "uint256",
          "name": "profitShare",
          "type": "uint256"
        }
      ],
      "name": "InvestmentMade",
      "type": "event"
    },
    {
      "anonymous": false,
      "inputs": [
        {
          "indexed": true,
          "internalType": "uint256",
          "name": "investmentId",
          "type": "uint256"
        },
        {
          "indexed": true,
          "internalType": "address",
          "name": "investor",
          "type": "address"
        },
        {
          "indexed": false,
          "internalType": "uint256",
          "name": "amount",
          "type": "uint256"
        }
      ],
      "name": "InvestmentWithdrawn",
      "type": "event"
    },
    {
      "anonymous": false,
      "inputs": [
        {
          "indexed": true,
          "internalType": "uint256",
          "name": "listingId",
          "type": "uint256"
        },
        {
          "indexed": true,
          "internalType": "address",
          "name": "seller",
          "type": "address"
        },
        {
          "indexed": false,
          "internalType": "string",
          "name": "itemType",
          "type": "string"
        },
        {
          "indexed": false,
          "internalType": "uint256",
          "name": "quantity",
          "type": "uint256"
        },
        {
          "indexed": false,
          "internalType": "uint256",
          "name": "price",
          "type": "uint256"
        },
        {
          "indexed": false,
          "internalType": "uint256",
          "name": "expiresAt",
          "type": "uint256"
        }
      ],
      "name": "ItemListed",
      "type": "event"
    },
    {
      "anonymous": false,
      "inputs": [
        {
          "indexed": true,
          "internalType": "uint256",
          "name": "listingId",
          "type": "uint256"
        },
        {
          "indexed": true,
          "internalType": "address",
          "name": "buyer",
          "type": "address"
        },
        {
          "indexed": true,
          "internalType": "address",
          "name": "seller",
          "type": "address"
        },
        {
          "indexed": false,
          "internalType": "uint256",
          "name": "quantity",
          "type": "uint256"
        },
        {
          "indexed": false,
          "internalType": "uint256",
          "name": "totalPrice",
          "type": "uint256"
        },
        {
          "indexed": false,
          "internalType": "uint256",
          "name": "fee",
          "type": "uint256"
        }
      ],
      "name": "ItemPurchased",
      "type": "event"
    },
    {
      "anonymous": false,
      "inputs": [
        {
          "indexed": true,
          "internalType": "uint256",
          "name": "listingId",
          "type": "uint256"
        },
        {
          "indexed": true,
          "internalType": "address",
          "name": "seller",
          "type": "address"
        }
      ],
      "name": "ListingCancelled",
      "type": "event"
    },
    {
      "anonymous": false,
      "inputs": [
        {
          "indexed": false,
          "internalType": "uint256",
          "name": "oldFee",
          "type": "uint256"
        },
        {
          "indexed": false,
          "internalType": "uint256",
          "name": "newFee",
          "type": "uint256"
        }
      ],
      "name": "MarketplaceFeeUpdated",
      "type": "event"
    },
    {
      "anonymous": false,
      "inputs": [
        {
          "indexed": true,
          "internalType": "address",
          "name": "previousOwner",
          "type": "address"
        },
        {
          "indexed": true,
          "internalType": "address",
          "name": "newOwner",
          "type": "address"
        }
      ],
      "name": "OwnershipTransferred",
      "type": "event"
    },
    {
      "anonymous": false,
      "inputs": [
        {
          "indexed": false,
          "internalType": "address",
          "name": "account",
          "type": "address"
        }
      ],
      "name": "Paused",
      "type": "event"
    },
    {
      "anonymous": false,
      "inputs": [
        {
          "indexed": true,
          "internalType": "uint256",
          "name": "investmentId",
          "type": "uint256"
        },
        {
          "indexed": true,
          "internalType": "address",
          "name": "investor",
          "type": "address"
        },
        {
          "indexed": false,
          "internalType": "uint256",
          "name": "profit",
          "type": "uint256"
        }
      ],
      "name": "ProfitDistributed",
      "type": "event"
    },
    {
      "anonymous": false,
      "inputs": [
        {
          "indexed": true,
          "internalType": "uint256",
          "name": "serviceId",
          "type": "uint256"
        },
        {
          "indexed": true,
          "internalType": "address",
          "name": "provider",
          "type": "address"
        }
      ],
      "name": "ServiceCancelled",
      "type": "event"
    },
    {
      "anonymous": false,
      "inputs": [
        {
          "indexed": true,
          "internalType": "uint256",
          "name": "serviceId",
          "type": "uint256"
        },
        {
          "indexed": true,
          "internalType": "address",
          "name": "provider",
          "type": "address"
        },
        {
          "indexed": false,
          "internalType": "string",
          "name": "serviceType",
          "type": "string"
        },
        {
          "indexed": false,
          "internalType": "uint256",
          "name": "price",
          "type": "uint256"
        }
      ],
      "name": "ServiceOffered",
      "type": "event"
    },
    {
      "anonymous": false,
      "inputs": [
        {
          "indexed": true,
          "internalType": "uint256",
          "name": "serviceId",
          "type": "uint256"
        },
        {
          "indexed": true,
          "internalType": "address",
          "name": "buyer",
          "type": "address"
        },
        {
          "indexed": true,
          "internalType": "address",
          "name": "provider",
          "type": "address"
        },
        {
          "indexed": false,
          "internalType": "uint256",
          "name": "price",
          "type": "uint256"
        },
        {
          "indexed": false,
          "internalType": "uint256",
          "name": "fee",
          "type": "uint256"
        }
      ],
      "name": "ServicePurchased",
      "type": "event"
    },
    {
      "anonymous": false,
      "inputs": [
        {
          "indexed": false,
          "internalType": "address",
          "name": "account",
          "type": "address"
        }
      ],
      "name": "Unpaused",
      "type": "event"
    },
    {
      "inputs": [],
      "name": "MAX_LISTING_DURATION",
      "outputs": [
        {
          "internalType": "uint256",
          "name": "",
          "type": "uint256"
        }
      ],
      "stateMutability": "view",
      "type": "function"
    },
    {
      "inputs": [],
      "name": "MAX_PROFIT_SHARE",
      "outputs": [
        {
          "internalType": "uint256",
          "name": "",
          "type": "uint256"
        }
      ],
      "stateMutability": "view",
      "type": "function"
    },
    {
      "inputs": [],
      "name": "MIN_PRICE",
      "outputs": [
        {
          "internalType": "uint256",
          "name": "",
          "type": "uint256"
        }
      ],
      "stateMutability": "view",
      "type": "function"
    },
    {
      "inputs": [
        {
          "internalType": "uint256",
          "name": "listingId",
          "type": "uint256"
        }
      ],
      "name": "cancelListing",
      "outputs": [],
      "stateMutability": "nonpayable",
      "type": "function"
    },
    {
      "inputs": [
        {
          "internalType": "uint256",
          "name": "serviceId",
          "type": "uint256"
        }
      ],
      "name": "cancelService",
      "outputs": [],
      "stateMutability": "nonpayable",
      "type": "function"
    },
    {
      "inputs": [
        {
          "internalType": "uint256",
          "name": "investmentId",
          "type": "uint256"
        },
        {
          "internalType": "uint256",
          "name": "profit",
          "type": "uint256"
        }
      ],
      "name": "distributeProfitToInvestor",
      "outputs": [],
      "stateMutability": "nonpayable",
      "type": "function"
    },
    {
      "inputs": [
        {
          "internalType": "address",
          "name": "agent",
          "type": "address"
        }
      ],
      "name": "getAgentListings",
      "outputs": [
        {
          "internalType": "uint256[]",
          "name": "",
          "type": "uint256[]"
        }
      ],
      "stateMutability": "view",
      "type": "function"
    },
    {
      "inputs": [
        {
          "internalType": "address",
          "name": "agent",
          "type": "address"
        }
      ],
      "name": "getAgentServices",
      "outputs": [
        {
          "internalType": "uint256[]",
          "name": "",
          "type": "uint256[]"
        }
      ],
      "stateMutability": "view",
      "type": "function"
    },
    {
      "inputs": [],
      "name": "getMarketplaceStats",
      "outputs": [
        {
          "internalType": "uint256",
          "name": "totalListings",
          "type": "uint256"
        },
        {
          "internalType": "uint256",
          "name": "totalServices",
          "type": "uint256"
        },
        {
          "internalType": "uint256",
          "name": "totalInvestments",
          "type": "uint256"
        },
        {
          "internalType": "uint256",
          "name": "feesCollected",
          "type": "uint256"
        }
      ],
      "stateMutability": "view",
      "type": "function"
    },
    {
      "inputs": [
        {
          "internalType": "address",
          "name": "agent",
          "type": "address"
        },
        {
          "internalType": "uint256",
          "name": "amount",
          "type": "uint256"
        },
        {
          "internalType": "uint256",
          "name": "profitShare",
          "type": "uint256"
        }
      ],
      "name": "investInAgent",
      "outputs": [
        {
          "internalType": "uint256",
          "name": "",
          "type": "uint256"
        }
      ],
      "stateMutability": "nonpayable",
      "type": "function"
    },
    {
      "inputs": [],
      "name": "investmentCounter",
      "outputs": [
        {
          "internalType": "uint256",
          "name": "",
          "type": "uint256"
        }
      ],
      "stateMutability": "view",
      "type": "function"
    },
    {
      "inputs": [
        {
          "internalType": "uint256",
          "name": "",
          "type": "uint256"
        }
      ],
      "name": "investments",
      "outputs": [
        {
          "internalType": "address",
          "name": "investor",
          "type": "address"
        },
        {
          "internalType": "address",
          "name": "agent",
          "type": "address"
        },
        {
          "internalType": "uint96",
          "name": "amount",
          "type": "uint96"
        },
        {
          "internalType": "uint32",
          "name": "profitShare",
          "type": "uint32"
        },
        {
          "internalType": "uint128",
          "name": "timestamp",
          "type": "uint128"
        },
        {
          "internalType": "bool",
          "name": "active",
          "type": "bool"
        }
      ],
      "stateMutability": "view",
      "type": "function"
    },
    {
      "inputs": [
        {
          "internalType": "string",
          "name": "itemType",
          "type": "string"
        },
        {
          "internalType": "uint256",
          "name": "quantity",
          "type": "uint256"
        },
        {
          "internalType": "uint256",
          "name": "pricePerUnit",
          "type": "uint256"
        }
      ],
      "name": "listItem",
      "outputs": [
        {
          "internalType": "uint256",
          "name": "",
          "type": "uint256"
        }
      ],
      "stateMutability": "nonpayable",
      "type": "function"
    },
    {
      "inputs": [],
      "name": "listingCounter",
      "outputs": [
        {
          "internalType": "uint256",
          "name": "",
          "type": "uint256"
        }
      ],
      "stateMutability": "view",
      "type": "function"
    },
    {
      "inputs": [
        {
          "internalType": "uint256",
          "name": "",
          "type": "uint256"
        }
      ],
      "name": "listings",
      "outputs": [
        {
          "internalType": "address",
          "name": "seller",
          "type": "address"
        },
        {
          "internalType": "uint96",
          "name": "pricePerUnit",
          "type": "uint96"
        },
        {
          "internalType": "uint128",
          "name": "quantity",
          "type": "uint128"
        },
        {
          "internalType": "uint128",
          "name": "createdAt",
          "type": "uint128"
        },
        {
          "internalType": "string",
          "name": "itemType",
          "type": "string"
        },
        {
          "internalType": "bool",
          "name": "active",
          "type": "bool"
        }
      ],
      "stateMutability": "view",
      "type": "function"
    },
    {
      "inputs": [],
      "name": "marketplaceFeePercent",
      "outputs": [
        {
          "internalType": "uint256",
          "name": "",
          "type": "uint256"
        }
      ],
      "stateMutability": "view",
      "type": "function"
    },
    {
      "inputs": [],
      "name": "monToken",
      "outputs": [
        {
          "internalType": "contract MONToken",
          "name": "",
          "type": "address"
        }
      ],
      "stateMutability": "view",
      "type": "function"
    },
    {
      "inputs": [
        {
          "internalType": "string",
          "name": "serviceType",
          "type": "string"
        },
        {
          "internalType": "uint256",
          "name": "pricePerAction",
          "type": "uint256"
        }
      ],
      "name": "offerService",
      "outputs": [
        {
          "internalType": "uint256",
          "name": "",
          "type": "uint256"
        }
      ],
      "stateMutability": "nonpayable",
      "type": "function"
    },
    {
      "inputs": [],
      "name": "owner",
      "outputs": [
        {
          "internalType": "address",
          "name": "",
          "type": "address"
        }
      ],
      "stateMutability": "view",
      "type": "function"
    },
    {
      "inputs": [],
      "name": "pause",
      "outputs": [],
      "stateMutability": "nonpayable",
      "type": "function"
    },
    {
      "inputs": [],
      "name": "paused",
      "outputs": [
        {
          "internalType": "bool",
          "name": "",
          "type": "bool"
        }
      ],
      "stateMutability": "view",
      "type": "function"
    },
    {
      "inputs": [
        {
          "internalType": "uint256",
          "name": "listingId",
          "type": "uint256"
        },
        {
          "internalType": "uint256",
          "name": "quantity",
          "type": "uint256"
        }
      ],
      "name": "purchaseItem",
      "outputs": [],
      "stateMutability": "nonpayable",
      "type": "function"
    },
    {
      "inputs": [
        {
          "internalType": "uint256",
          "name": "serviceId",
          "type": "uint256"
        }
      ],
      "name": "purchaseService",
      "outputs": [],
      "stateMutability": "nonpayable",
      "type": "function"
    },
    {
      "inputs": [],
      "name": "renounceOwnership",
      "outputs": [],
      "stateMutability": "nonpayable",
      "type": "function"
    },
    {
      "inputs": [],
      "name": "serviceCounter",
      "outputs": [
        {
          "internalType": "uint256",
          "name": "",
          "type": "uint256"
        }
      ],
      "stateMutability": "view",
      "type": "function"
    },
    {
      "inputs": [
        {
          "internalType": "uint256",
          "name": "",
          "type": "uint256"
        }
      ],
      "name": "services",
      "outputs": [
        {
          "internalType": "address",
          "name": "provider",
          "type": "address"
        },
        {
          "internalType": "uint96",
          "name": "pricePerAction",
          "type": "uint96"
        },
        {
          "internalType": "uint128",
          "name": "completedJobs",
          "type": "uint128"
        },
        {
          "internalType": "bool",
          "name": "active",
          "type": "bool"
        },
        {
          "internalType": "string",
          "name": "serviceType",
          "type": "string"
        }
      ],
      "stateMutability": "view",
      "type": "function"
    },
    {
      "inputs": [
        {
          "internalType": "uint256",
          "name": "newFeePercent",
          "type": "uint256"
        }
      ],
      "name": "setMarketplaceFee",
      "outputs": [],
      "stateMutability": "nonpayable",
      "type": "function"
    },
    {
      "inputs": [],
      "name": "totalFeesCollected",
      "outputs": [
        {
          "internalType": "uint256",
          "name": "",
          "type": "uint256"
        }
      ],
      "stateMutability": "view",
      "type": "function"
    },
    {
      "inputs": [
        {
          "internalType": "address",
          "name": "",
          "type": "address"
        }
      ],
      "name": "totalInvested",
      "outputs": [
        {
          "internalType": "uint256",
          "name": "",
          "type": "uint256"
        }
      ],
      "stateMutability": "view",
      "type": "function"
    },
    {
      "inputs": [
        {
          "internalType": "address",
          "name": "newOwner",
          "type": "address"
        }
      ],
      "name": "transferOwnership",
      "outputs": [],
      "stateMutability": "nonpayable",
      "type": "function"
    },
    {
      "inputs": [],
      "name": "treasury",
      "outputs": [
        {
          "internalType": "contract WorldTreasury",
          "name": "",
          "type": "address"
        }
      ],
      "stateMutability": "view",
      "type": "function"
    },
    {
      "inputs": [],
      "name": "unpause",
      "outputs": [],
      "stateMutability": "nonpayable",
      "type": "function"
    },
    {
      "inputs": [
        {
          "internalType": "address",
          "name": "recipient",
          "type": "address"
        }
      ],
      "name": "withdrawFees",
      "outputs": [],
      "stateMutability": "nonpayable",
      "type": "function"
    },
    {
      "inputs": [
        {
          "internalType": "uint256",
          "name": "investmentId",
          "type": "uint256"
        }
      ],
      "name": "withdrawInvestment",
      "outputs": [],
      "stateMutability": "nonpayable",
      "type": "function"
    }
  ],
  "bytecode": "0x60c060405260fa6003553480156200001657600080fd5b50604051620026b5380380620026b5833981016040819052620000399162000132565b33806200006057604051631e4fbdf760e01b81526000600482015260240160405180910390fd5b6200006b81620000c5565b50600180556001600160a01b03821615806200008e57506001600160a01b038116155b15620000ad5760405163e6c4247b60e01b815260040160405180910390fd5b6001600160a01b039182166080521660a0526200016a565b600080546001600160a01b038381166001600160a01b0319831681178455604051919092169283917f8be0079c531659141344cd1fd0a4f28419497f9722a3daafe3b4186f6b6457e09190a35050565b80516001600160a01b03811681146200012d57600080fd5b919050565b600080604083850312156200014657600080fd5b620001518362000115565b9150620001616020840162000115565b90509250929050565b60805160a0516124d8620001dd6000396000818161032e0152818161065b01528181610b9901528181610c7201528181610d2a01528181610eeb01528181610f96015281816111c50152818161126e0152818161180b015281816118dc0152611994015260006102ef01526124d86000f3fe608060405234801561001057600080fd5b50600436106102065760003560e01c80637b5205101161011a578063ad9f20a6116100ad578063e06756981161007c578063e067569814610473578063e273571b14610486578063f176627914610499578063f2fde38b146104ac578063fd345c8a146104bf57600080fd5b8063ad9f20a614610408578063b99a510d14610417578063c22c4f431461042a578063de74e57b1461044e57600080fd5b80638da5cb5b116100e95780638da5cb5b146103ba57806390838e09146103cb5780639407ea98146103eb5780639e02bd52146103fe57600080fd5b80637b5205101461036a5780637defdd731461037d578063812d966a146103865780638456cb59146103b257600080fd5b80635c975abb1161019d57806361d027b31161016c57806361d027b3146102ea57806363eb9f90146103295780636c2c9c7d14610350578063715018a6146103595780637994c1a11461036157600080fd5b80635c975abb146102a55780636087bbd7146102bb57806360c34ae6146102ce57806360c6d8ae146102e157600080fd5b806338d73b0d116101d957806338d73b0d146102595780633f4ba83a1461027557806341f3e15e1461027d5780635868b5ac1461028557600080fd5b8063148031a11461020b578063164e68de146102205780632037fcbf14610233578063305a67a814610246575b600080fd5b61021e610219366004611f09565b610582565b005b61021e61022e366004611f3e565b6105fa565b61021e610241366004611f09565b61072c565b61021e610254366004611f09565b610835565b61026260035481565b6040519081526020015b60405180910390f35b61021e6108aa565b610262603281565b610298610293366004611f3e565b6108bc565b60405161026c9190611f59565b60025460ff16604051901515815260200161026c565b6102626102c9366004611fe6565b610928565b61021e6102dc366004611f09565b610afa565b61026260045481565b6103117f000000000000000000000000000000000000000000000000000000000000000081565b6040516001600160a01b03909116815260200161026c565b6103117f000000000000000000000000000000000000000000000000000000000000000081565b61026260055481565b61021e610e4b565b61026260075481565b61021e610378366004612032565b610e5d565b61026260065481565b60055460065460075460045460408051948552602085019390935291830152606082015260800161026c565b61021e611081565b6000546001600160a01b0316610311565b6102626103d9366004611f3e565b600d6020526000908152604090205481565b61021e6103f9366004611f09565b611091565b61026262278d0081565b61026267016345785d8a000081565b610262610425366004612054565b611101565b61043d610438366004611f09565b61151e565b60405161026c9594939291906120cd565b61046161045c366004611f09565b6115fa565b60405161026c96959493929190612122565b61021e610481366004612032565b6116de565b610298610494366004611f3e565b611ad0565b6102626104a7366004612181565b611b3a565b61021e6104ba366004611f3e565b611d4c565b61052c6104cd366004611f09565b600a602052600090815260409020805460018201546002909201546001600160a01b039182169291821691600160a01b908190046001600160601b03169163ffffffff81169164010000000082046001600160801b0316910460ff1686565b604080516001600160a01b0397881681529690951660208701526001600160601b039093169385019390935263ffffffff1660608401526001600160801b039091166080830152151560a082015260c00161026c565b600081815260096020526040902080546001600160a01b031633146105ba5760405163115e986f60e31b815260040160405180910390fd5b60018101805460ff60801b19169055604051339083907f4de9c9d8194dcb45ece90ef821b3695534fee9d6c7b5bd9b260de4ded1fd9e8f90600090a35050565b610602611d8c565b6001600160a01b0381166106295760405163e6c4247b60e01b815260040160405180910390fd5b600480546000825560405163a9059cbb60e01b81526001600160a01b03848116938201939093526024810182905290917f0000000000000000000000000000000000000000000000000000000000000000169063a9059cbb906044016020604051808303816000875af11580156106a4573d6000803e3d6000fd5b505050506040513d601f19601f820116820180604052508101906106c891906121d2565b6106e5576040516312171d8360e31b815260040160405180910390fd5b816001600160a01b03167fc0819c13be868895eb93e40eaceb96de976442fa1d404e5c55f14bb65a8c489a8260405161072091815260200190565b60405180910390a25050565b610734611db9565b61073c611de3565b6000818152600a602052604090206002810154600160a01b900460ff166107765760405163030184d760e31b815260040160405180910390fd5b80546001600160a01b031633146107a057604051637c62d69f60e01b815260040160405180910390fd5b60028101805460ff60a01b191690556001810180546001600160a01b0381166000908152600d602090815260409182902080546001600160601b03600160a01b95869004811690910390915593549151929091049092168152339184917f05ca455a01213f8fad66148acbe3cdab7e54cde2914c9ec51f091a748ae829ef910160405180910390a35061083260018055565b50565b600081815260086020526040902080546001600160a01b0316331461086d57604051637c62d69f60e01b815260040160405180910390fd5b60038101805460ff19169055604051339083907f8e25282255ab31897df2b0456bb993ac7f84d376861aefd84901d2d63a7428a290600090a35050565b6108b2611d8c565b6108ba611e07565b565b6001600160a01b0381166000908152600c602090815260409182902080548351818402810184019094528084526060939283018282801561091c57602002820191906000526020600020905b815481526020019060010190808311610908575b50505050509050919050565b6000610932611db9565b61093a611de3565b67016345785d8a00008210156109625760405162bfc92160e01b815260040160405180910390fd5b60068054600091826109738361220a565b9190505590506040518060a00160405280336001600160a01b03168152602001846001600160601b0316815260200160006001600160801b0316815260200160011515815260200186868080601f0160208091040260200160405190810160405280939291908181526020018383808284376000920182905250939094525050838152600960209081526040918290208451918501516001600160601b0316600160a01b026001600160a01b039092169190911781559083015160018201805460608601511515600160801b0270ffffffffffffffffffffffffffffffffff199091166001600160801b039093169290921791909117905560808301519091506002820190610a8290826122c2565b5050336000818152600c60209081526040808320805460018101825590845291909220018490555190915082907f11c5fff3b5aeb9b7782b5c4b7b3260a1272d2bcd72f9c401e68d23465a260f8a90610ae0908990899089906123ab565b60405180910390a39050610af360018055565b9392505050565b610b02611db9565b610b0a611de3565b60008181526009602052604090206001810154600160801b900460ff16610b445760405163090f768960e01b815260040160405180910390fd5b80546001600160a01b03163303610b6e5760405163286b8a0b60e01b815260040160405180910390fd5b80546040516370a0823160e01b8152336004820152600160a01b9091046001600160601b03169081907f00000000000000000000000000000000000000000000000000000000000000006001600160a01b0316906370a0823190602401602060405180830381865afa158015610be8573d6000803e3d6000fd5b505050506040513d601f19601f82011682018060405250810190610c0c91906123cf565b1015610c2b57604051631e9acf1760e31b815260040160405180910390fd5b600061271060035483610c3e91906123e8565b610c489190612405565b90506000610c568284612427565b84546040516323b872dd60e01b81529192506001600160a01b037f00000000000000000000000000000000000000000000000000000000000000008116926323b872dd92610cad923392911690869060040161243a565b6020604051808303816000875af1158015610ccc573d6000803e3d6000fd5b505050506040513d601f19601f82011682018060405250810190610cf091906121d2565b610d0d576040516312171d8360e31b815260040160405180910390fd5b8115610dcc576040516323b872dd60e01b81526001600160a01b037f000000000000000000000000000000000000000000000000000000000000000016906323b872dd90610d639033903090879060040161243a565b6020604051808303816000875af1158015610d82573d6000803e3d6000fd5b505050506040513d601f19601f82011682018060405250810190610da691906121d2565b610dc3576040516312171d8360e31b815260040160405180910390fd5b60048054830190555b600184810180546001600160801b031981166001600160801b0391821690930116919091179055835460408051858152602081018590526001600160a01b0390921691339188917f2b640819d3a9b5c8c352a633b35c194e6fad334b3c1e1d5f20005cd96231f998910160405180910390a45050505061083260018055565b610e53611d8c565b6108ba6000611e59565b610e65611db9565b610e6d611de3565b6000828152600a602052604090206002810154600160a01b900460ff16610ea75760405163030184d760e31b815260040160405180910390fd5b60018101546001600160a01b03163314610ed457604051631e3ec48f60e11b815260040160405180910390fd5b6040516370a0823160e01b815233600482015282907f00000000000000000000000000000000000000000000000000000000000000006001600160a01b0316906370a0823190602401602060405180830381865afa158015610f3a573d6000803e3d6000fd5b505050506040513d601f19601f82011682018060405250810190610f5e91906123cf565b1015610f7d57604051631e9acf1760e31b815260040160405180910390fd5b80546040516323b872dd60e01b81526001600160a01b037f00000000000000000000000000000000000000000000000000000000000000008116926323b872dd92610fd09233921690879060040161243a565b6020604051808303816000875af1158015610fef573d6000803e3d6000fd5b505050506040513d601f19601f8201168201806040525081019061101391906121d2565b611030576040516312171d8360e31b815260040160405180910390fd5b80546040518381526001600160a01b039091169084907f396546d4dc05195830741e6620df0b26768c6f92995256089880b16b759bac819060200160405180910390a35061107d60018055565b5050565b611089611d8c565b6108ba611ea9565b611099611d8c565b6103e88111156110bc57604051638a81d3b360e01b815260040160405180910390fd5b600380549082905560408051828152602081018490527f936008f1e981d6f48d4a529714c27d74d644750a1d215451212ce0f2476f2fbc910160405180910390a15050565b600061110b611db9565b611113611de3565b336001600160a01b0385160361113c57604051630909ed6160e01b815260040160405180910390fd5b6001600160a01b0384166111635760405163e6c4247b60e01b815260040160405180910390fd5b826000036111835760405162bfc92160e01b815260040160405180910390fd5b8115806111905750603282115b156111ae5760405163a7d363d760e01b815260040160405180910390fd5b6040516370a0823160e01b815233600482015283907f00000000000000000000000000000000000000000000000000000000000000006001600160a01b0316906370a0823190602401602060405180830381865afa158015611214573d6000803e3d6000fd5b505050506040513d601f19601f8201168201806040525081019061123891906123cf565b101561125757604051631e9acf1760e31b815260040160405180910390fd5b6040516323b872dd60e01b81526001600160a01b037f000000000000000000000000000000000000000000000000000000000000000016906323b872dd906112a79033908890889060040161243a565b6020604051808303816000875af11580156112c6573d6000803e3d6000fd5b505050506040513d601f19601f820116820180604052508101906112ea91906121d2565b611307576040516312171d8360e31b815260040160405180910390fd5b60078054600091826113188361220a565b9190505590506040518060c00160405280336001600160a01b03168152602001866001600160a01b03168152602001856001600160601b031681526020018463ffffffff168152602001426001600160801b0316815260200160011515815250600a600083815260200190815260200160002060008201518160000160006101000a8154816001600160a01b0302191690836001600160a01b0316021790555060208201518160010160006101000a8154816001600160a01b0302191690836001600160a01b0316021790555060408201518160010160146101000a8154816001600160601b0302191690836001600160601b0316021790555060608201518160020160006101000a81548163ffffffff021916908363ffffffff16021790555060808201518160020160046101000a8154816001600160801b0302191690836001600160801b0316021790555060a08201518160020160146101000a81548160ff02191690831515021790555090505083600d6000876001600160a01b03166001600160a01b0316815260200190815260200160002060008282540192505081905550846001600160a01b0316336001600160a01b0316827ff566bcce8e401ff2143a6b246b938d738f0ddb27df327b6c05433449d4cde5e1878760405161150b929190918252602082015260400190565b60405180910390a49050610af360018055565b6009602052600090815260409020805460018201546002830180546001600160a01b03841694600160a01b9094046001600160601b0316936001600160801b03841693600160801b900460ff1692909161157790612239565b80601f01602080910402602001604051908101604052809291908181526020018280546115a390612239565b80156115f05780601f106115c5576101008083540402835291602001916115f0565b820191906000526020600020905b8154815290600101906020018083116115d357829003601f168201915b5050505050905085565b6008602052600090815260409020805460018201546002830180546001600160a01b03841694600160a01b9094046001600160601b0316936001600160801b0380851694600160801b90041692909161165290612239565b80601f016020809104026020016040519081016040528092919081815260200182805461167e90612239565b80156116cb5780601f106116a0576101008083540402835291602001916116cb565b820191906000526020600020905b8154815290600101906020018083116116ae57829003601f168201915b5050506003909301549192505060ff1686565b6116e6611db9565b6116ee611de3565b6000828152600860205260409020600381015460ff16611721576040516366cb03e960e01b815260040160405180910390fd5b60018101546001600160801b031682111561174f576040516348e126c160e11b815260040160405180910390fd5b80546001600160a01b03163303611779576040516350eadcb160e01b815260040160405180910390fd5b600181015461179c9062278d0090600160801b90046001600160801b031661245e565b4211156117c95760038101805460ff1916905560408051631cc67e8160e11b815290519081900360040190fd5b80546000906117e9908490600160a01b90046001600160601b03166123e8565b6040516370a0823160e01b815233600482015290915081906001600160a01b037f000000000000000000000000000000000000000000000000000000000000000016906370a0823190602401602060405180830381865afa158015611852573d6000803e3d6000fd5b505050506040513d601f19601f8201168201806040525081019061187691906123cf565b101561189557604051631e9acf1760e31b815260040160405180910390fd5b6000612710600354836118a891906123e8565b6118b29190612405565b905060006118c08284612427565b84546040516323b872dd60e01b81529192506001600160a01b037f00000000000000000000000000000000000000000000000000000000000000008116926323b872dd92611917923392911690869060040161243a565b6020604051808303816000875af1158015611936573d6000803e3d6000fd5b505050506040513d601f19601f8201168201806040525081019061195a91906121d2565b611977576040516312171d8360e31b815260040160405180910390fd5b8115611a36576040516323b872dd60e01b81526001600160a01b037f000000000000000000000000000000000000000000000000000000000000000016906323b872dd906119cd9033903090879060040161243a565b6020604051808303816000875af11580156119ec573d6000803e3d6000fd5b505050506040513d601f19601f82011682018060405250810190611a1091906121d2565b611a2d576040516312171d8360e31b815260040160405180910390fd5b60048054830190555b6001840180546001600160801b03808216889003166001600160801b03199091168117909155600003611a705760038401805460ff191690555b835460408051878152602081018690529081018490526001600160a01b0390911690339088907f36bed56c28d76c2d379cd8a4df5c0339a1ecae5e7203937e38f5d767bd2e53d69060600160405180910390a45050505061107d60018055565b6001600160a01b0381166000908152600b602090815260409182902080548351818402810184019094528084526060939283018282801561091c57602002820191906000526020600020908154815260200190600101908083116109085750505050509050919050565b6000611b44611db9565b611b4c611de3565b82600003611b6d5760405163524f409b60e01b815260040160405180910390fd5b67016345785d8a0000821015611b955760405162bfc92160e01b815260040160405180910390fd5b6005805460009182611ba68361220a565b9190505590506040518060c00160405280336001600160a01b03168152602001846001600160601b03168152602001856001600160801b03168152602001426001600160801b0316815260200187878080601f0160208091040260200160405190810160405280939291908181526020018383808284376000920182905250938552505060016020938401819052858352600884526040928390208551948601516001600160601b0316600160a01b026001600160a01b039095169490941784559184015160608501516001600160801b03908116600160801b02911617918301919091555060808201516002820190611ca090826122c2565b5060a091909101516003909101805460ff1916911515919091179055336000908152600b602090815260408220805460018101825590835290822001829055611cec62278d004261245e565b9050336001600160a01b0316827f4f37d060e4b1c32848ea736f0722d5cbde16bdedfef35eb2da1a969bf5a708b78989898987604051611d30959493929190612471565b60405180910390a3509050611d4460018055565b949350505050565b611d54611d8c565b6001600160a01b038116611d8357604051631e4fbdf760e01b8152600060048201526024015b60405180910390fd5b61083281611e59565b6000546001600160a01b031633146108ba5760405163118cdaa760e01b8152336004820152602401611d7a565b600260015403611ddc57604051633ee5aeb560e01b815260040160405180910390fd5b6002600155565b60025460ff16156108ba5760405163d93c066560e01b815260040160405180910390fd5b611e0f611ee6565b6002805460ff191690557f5db9ee0a495bf2e6ff9c91a7834c1ba4fdd244a5e8aa4e537bd38aeae4b073aa335b6040516001600160a01b03909116815260200160405180910390a1565b600080546001600160a01b038381166001600160a01b0319831681178455604051919092169283917f8be0079c531659141344cd1fd0a4f28419497f9722a3daafe3b4186f6b6457e09190a35050565b611eb1611de3565b6002805460ff191660011790557f62e78cea01bee320cd4e420270b5ea74000d11b0c9f74754ebdbfc544b05a258611e3c3390565b60025460ff166108ba57604051638dfc202b60e01b815260040160405180910390fd5b600060208284031215611f1b57600080fd5b5035919050565b80356001600160a01b0381168114611f3957600080fd5b919050565b600060208284031215611f5057600080fd5b610af382611f22565b6020808252825182820181905260009190848201906040850190845b81811015611f9157835183529284019291840191600101611f75565b50909695505050505050565b60008083601f840112611faf57600080fd5b50813567ffffffffffffffff811115611fc757600080fd5b602083019150836020828501011115611fdf57600080fd5b9250929050565b600080600060408486031215611ffb57600080fd5b833567ffffffffffffffff81111561201257600080fd5b61201e86828701611f9d565b909790965060209590950135949350505050565b6000806040838503121561204557600080fd5b50508035926020909101359150565b60008060006060848603121561206957600080fd5b61207284611f22565b95602085013595506040909401359392505050565b6000815180845260005b818110156120ad57602081850181015186830182015201612091565b506000602082860101526020601f19601f83011685010191505092915050565b6001600160a01b03861681526001600160601b03851660208201526001600160801b0384166040820152821515606082015260a06080820181905260009061211790830184612087565b979650505050505050565b6001600160a01b03871681526001600160601b03861660208201526001600160801b0385811660408301528416606082015260c06080820181905260009061216c90830185612087565b905082151560a0830152979650505050505050565b6000806000806060858703121561219757600080fd5b843567ffffffffffffffff8111156121ae57600080fd5b6121ba87828801611f9d565b90989097506020870135966040013595509350505050565b6000602082840312156121e457600080fd5b81518015158114610af357600080fd5b634e487b7160e01b600052601160045260246000fd5b60006001820161221c5761221c6121f4565b5060010190565b634e487b7160e01b600052604160045260246000fd5b600181811c9082168061224d57607f821691505b60208210810361226d57634e487b7160e01b600052602260045260246000fd5b50919050565b601f8211156122bd57600081815260208120601f850160051c8101602086101561229a5750805b601f850160051c820191505b818110156122b9578281556001016122a6565b5050505b505050565b815167ffffffffffffffff8111156122dc576122dc612223565b6122f0816122ea8454612239565b84612273565b602080601f831160018114612325576000841561230d5750858301515b600019600386901b1c1916600185901b1785556122b9565b600085815260208120601f198616915b8281101561235457888601518255948401946001909101908401612335565b50858210156123725787850151600019600388901b60f8161c191681555b5050505050600190811b01905550565b81835281816020850137506000828201602090810191909152601f909101601f19169091010190565b6040815260006123bf604083018587612382565b9050826020830152949350505050565b6000602082840312156123e157600080fd5b5051919050565b80820281158282048414176123ff576123ff6121f4565b92915050565b60008261242257634e487b7160e01b600052601260045260246000fd5b500490565b818103818111156123ff576123ff6121f4565b6001600160a01b039384168152919092166020820152604081019190915260600190565b808201808211156123ff576123ff6121f4565b608081526000612485608083018789612382565b60208301959095525060408101929092526060909101529291505056fea2646970667358221220e65d7a4d0b459b8975d95cda512788d23edf42b055f70e3258474aa0b4145dbf64736f6c63430008140033",
  "linkReferences": {},
  "deployedLinkReferences": {}
}