{"contracts/WorldTreasury.sol":{"WorldTreasury":{"abi":[{"inputs":[{"internalType":"address","name":"_monToken","type":"address"}],"stateMutability":"nonpayable","type":"constructor"},{"inputs":[],"name":"AgentAlreadyEntered","type":"error"},{"inputs":[],"name":"AgentNotInWorld","type":"error"},{"inputs":[],"name":"EnforcedPause","type":"error"},{"inputs":[],"name":"ExpectedPause","type":"error"},{"inputs":[],"name":"InsufficientBalance","type":"error"},{"inputs":[],"name":"InvalidAddress","type":"error"},{"inputs":[],"name":"InvalidAmount","type":"error"},{"inputs":[],"name":"NotAuthorizedDistributor","type":"error"},{"inputs":[{"internalType":"address","name":"owner","type":"address"}],"name":"OwnableInvalidOwner","type":"error"},{"inputs":[{"internalType":"address","name":"account","type":"address"}],"name":"OwnableUnauthorizedAccount","type":"error"},{"inputs":[],"name":"ReentrancyGuardReentrantCall","type":"error"},{"inputs":[{"internalType":"uint256","name":"timeRemaining","type":"uint256"}],"name":"RewardCooldownActive","type":"error"},{"inputs":[{"internalType":"uint256","name":"requested","type":"uint256"},{"internalType":"uint256","name":"maximum","type":"uint256"}],"name":"RewardTooLarge","type":"error"},{"inputs":[],"name":"TransferFailed","type":"error"},{"anonymous":false,"inputs":[{"indexed":true,"internalType":"address","name":"agent","type":"address"},{"indexed":false,"internalType":"uint256","name":"entryFee","type":"uint256"},{"indexed":false,"internalType":"uint256","name":"timestamp","type":"uint256"}],"name":"AgentEntered","type":"event"},{"anonymous":false,"inputs":[{"indexed":true,"internalType":"address","name":"from","type":"address"},{"indexed":true,"internalType":"address","name":"to","type":"address"},{"indexed":false,"internalType":"uint256","name":"amount","type":"uint256"},{"indexed":false,"internalType":"string","name":"reason","type":"string"}],"name":"AgentToAgentTransfer","type":"event"},{"anonymous":false,"inputs":[{"indexed":true,"internalType":"address","name":"distributor","type":"address"},{"indexed":false,"internalType":"bool","name":"authorized","type":"bool"}],"name":"DistributorUpdated","type":"event"},{"anonymous":false,"inputs":[{"indexed":true,"internalType":"address","name":"buyer","type":"address"},{"indexed":true,"internalType":"address","name":"seller","type":"address"},{"indexed":false,"internalType":"uint256","name":"price","type":"uint256"},{"indexed":false,"internalType":"string","name":"itemType","type":"string"}],"name":"ItemPurchased","type":"event"},{"anonymous":false,"inputs":[{"indexed":true,"internalType":"address","name":"previousOwner","type":"address"},{"indexed":true,"internalType":"address","name":"newOwner","type":"address"}],"name":"OwnershipTransferred","type":"event"},{"anonymous":false,"inputs":[{"indexed":false,"internalType":"address","name":"account","type":"address"}],"name":"Paused","type":"event"},{"anonymous":false,"inputs":[{"indexed":true,"internalType":"address","name":"agent","type":"address"},{"indexed":false,"internalType":"uint256","name":"oldScore","type":"uint256"},{"indexed":false,"internalType":"uint256","name":"newScore","type":"uint256"}],"name":"ReputationUpdated","type":"event"},{"anonymous":false,"inputs":[{"indexed":true,"internalType":"address","name":"agent","type":"address"},{"indexed":false,"internalType":"uint256","name":"amount","type":"uint256"},{"indexed":false,"internalType":"string","name":"reason","type":"string"},{"indexed":false,"internalType":"uint256","name":"newBalance","type":"uint256"}],"name":"RewardDistributed","type":"event"},{"anonymous":false,"inputs":[{"indexed":false,"internalType":"address","name":"account","type":"address"}],"name":"Unpaused","type":"event"},{"inputs":[],"name":"ENTRY_FEE","outputs":[{"internalType":"uint256","name":"","type":"uint256"}],"stateMutability":"view","type":"function"},{"inputs":[],"name":"MAX_REWARD_PER_ACTION","outputs":[{"internalType":"uint256","name":"","type":"uint256"}],"stateMutability":"view","type":"function"},{"inputs":[],"name":"REWARD_COOLDOWN","outputs":[{"internalType":"uint256","name":"","type":"uint256"}],"stateMutability":"view","type":"function"},{"inputs":[{"internalType":"address","name":"","type":"address"},{"internalType":"address","name":"","type":"address"}],"name":"agentToAgentTransfers","outputs":[{"internalType":"uint256","name":"","type":"uint256"}],"stateMutability":"view","type":"function"},{"inputs":[{"internalType":"address","name":"","type":"address"}],"name":"agents","outputs":[{"internalType":"bool","name":"hasEntered","type":"bool"},{"internalType":"uint248","name":"entryTime","type":"uint248"},{"internalType":"uint256","name":"totalEarned","type":"uint256"},{"internalType":"uint256","name":"totalSpent","type":"uint256"},{"internalType":"uint256","name":"actionCount","type":"uint256"},{"internalType":"uint256","name":"lastRewardTime","type":"uint256"},{"internalType":"uint256","name":"reputationScore","type":"uint256"}],"stateMutability":"view","type":"function"},{"inputs":[{"internalType":"address","name":"agent","type":"address"},{"internalType":"uint256","name":"amount","type":"uint256"},{"internalType":"string","name":"reason","type":"string"}],"name":"distributeReward","outputs":[],"stateMutability":"nonpayable","type":"function"},{"inputs":[],"name":"enterWorld","outputs":[],"stateMutability":"nonpayable","type":"function"},{"inputs":[{"internalType":"address","name":"agent","type":"address"}],"name":"getAgentStats","outputs":[{"internalType":"bool","name":"hasEntered","type":"bool"},{"internalType":"uint256","name":"entryTime","type":"uint256"},{"internalType":"uint256","name":"totalEarned","type":"uint256"},{"internalType":"uint256","name":"totalSpent","type":"uint256"},{"internalType":"uint256","name":"actionCount","type":"uint256"},{"internalType":"uint256","name":"currentBalance","type":"uint256"},{"internalType":"uint256","name":"reputationScore","type":"uint256"}],"stateMutability":"view","type":"function"},{"inputs":[],"name":"getWorldStats","outputs":[{"internalType":"uint256","name":"_totalAgents","type":"uint256"},{"internalType":"uint256","name":"_totalFeesCollected","type":"uint256"},{"internalType":"uint256","name":"_totalRewardsDistributed","type":"uint256"},{"internalType":"uint256","name":"treasuryBalance","type":"uint256"}],"stateMutability":"view","type":"function"},{"inputs":[{"internalType":"address","name":"","type":"address"}],"name":"isDistributor","outputs":[{"internalType":"bool","name":"","type":"bool"}],"stateMutability":"view","type":"function"},{"inputs":[],"name":"monToken","outputs":[{"internalType":"contract MONToken","name":"","type":"address"}],"stateMutability":"view","type":"function"},{"inputs":[],"name":"owner","outputs":[{"internalType":"address","name":"","type":"address"}],"stateMutability":"view","type":"function"},{"inputs":[],"name":"pause","outputs":[],"stateMutability":"nonpayable","type":"function"},{"inputs":[],"name":"paused","outputs":[{"internalType":"bool","name":"","type":"bool"}],"stateMutability":"view","type":"function"},{"inputs":[{"internalType":"address","name":"seller","type":"address"},{"internalType":"uint256","name":"price","type":"uint256"},{"internalType":"string","name":"itemType","type":"string"}],"name":"purchaseItem","outputs":[],"stateMutability":"nonpayable","type":"function"},{"inputs":[],"name":"renounceOwnership","outputs":[],"stateMutability":"nonpayable","type":"function"},{"inputs":[{"internalType":"address","name":"distributor","type":"address"},{"internalType":"bool","name":"authorized","type":"bool"}],"name":"setDistributor","outputs":[],"stateMutability":"nonpayable","type":"function"},{"inputs":[],"name":"totalAgents","outputs":[{"internalType":"uint256","name":"","type":"uint256"}],"stateMutability":"view","type":"function"},{"inputs":[],"name":"totalFeesCollected","outputs":[{"internalType":"uint256","name":"","type":"uint256"}],"stateMutability":"view","type":"function"},{"inputs":[],"name":"totalRewardsDistributed","outputs":[{"internalType":"uint256","name":"","type":"uint256"}],"stateMutability":"view","type":"function"},{"inputs":[{"internalType":"address","name":"newOwner","type":"address"}],"name":"transferOwnership","outputs":[],"stateMutability":"nonpayable","type":"function"},{"inputs":[{"internalType":"address","name":"to","type":"address"},{"internalType":"uint256","name":"amount","type":"uint256"},{"internalType":"string","name":"reason","type":"string"}],"name":"transferToAgent","outputs":[],"stateMutability":"nonpayable","type":"function"},{"inputs":[],"name":"unpause","outputs":[],"stateMutability":"nonpayable","type":"function"}],"evm":{"bytecode":{"linkReferences":{},"object":"60a060405234801561001057600080fd5b50604051620017b3380380620017b383398101604081905261003191610140565b338061005757604051631e4fbdf760e01b81526000600482015260240160405180910390fd5b610060816100f0565b50600180556001600160a01b03811661008c5760405163e6c4247b60e01b815260040160405180910390fd5b6001600160a01b03811660805233600081815260066020908152604091829020805460ff1916600190811790915591519182527f19e1fee2e38695e60ad3ef8c81759c22d6d7ee56f9b8805363820a50da468a18910160405180910390a250610170565b600080546001600160a01b038381166001600160a01b0319831681178455604051919092169283917f8be0079c531659141344cd1fd0a4f28419497f9722a3daafe3b4186f6b6457e09190a35050565b60006020828403121561015257600080fd5b81516001600160a01b038116811461016957600080fd5b9392505050565b6080516115e1620001d2600039600081816101ba015281816104b80152818161057601528181610812015281816108ed015281816109b101528181610aca01528181610b8601528181610dad01528181610fa4015261106201526115e16000f3fe608060405234801561001057600080fd5b506004361061014d5760003560e01c80638c7433e3116100c3578063d59ba0df1161007c578063d59ba0df146102fe578063e425033914610311578063ee17254614610324578063f2fde38b1461032d578063f6d361cc14610340578063fd66091e1461035057600080fd5b80638c7433e3146102445780638da5cb5b1461024c5780638f0c86fa1461025d578063b5695b3814610280578063bf79b005146102ca578063c5053712146102f557600080fd5b806363eb9f901161011557806363eb9f90146101b5578063715018a6146101f457806374cf90ee146101fc5780637afc8df914610204578063836783df146102145780638456cb591461023c57600080fd5b8063031a0463146101525780632a7ea9d2146101675780633f4ba83a1461017a5780635c975abb1461018257806360c6d8ae1461019e575b600080fd5b61016561016036600461139b565b6103e0565b005b61016561017536600461139b565b6106a9565b61016561097c565b60025460ff165b60405190151581526020015b60405180910390f35b6101a760045481565b604051908152602001610195565b6101dc7f000000000000000000000000000000000000000000000000000000000000000081565b6040516001600160a01b039091168152602001610195565b61016561098e565b6101a7600181565b6101a7681b1ae4d6e2ef50000081565b61021c6109a0565b604080519485526020850193909352918301526060820152608001610195565b610165610a59565b610165610a69565b6000546001600160a01b03166101dc565b61018961026b366004611422565b60066020526000908152604090205460ff1681565b61029361028e366004611422565b610d08565b6040805197151588526020880196909652948601939093526060850191909152608084015260a083015260c082015260e001610195565b6101a76102d8366004611444565b600860209081526000928352604080842090915290825290205481565b6101a760035481565b61016561030c366004611485565b610e3e565b61016561031f36600461139b565b610ecc565b6101a760055481565b61016561033b366004611422565b611162565b6101a768056bc75e2d6310000081565b6103a161035e366004611422565b60076020526000908152604090208054600182015460028301546003840154600485015460059095015460ff8516956101009095046001600160f81b0316949087565b6040805197151588526001600160f81b039096166020880152948601939093526060850191909152608084015260a083015260c082015260e001610195565b6103e86111a0565b6103f06111ca565b3360009081526007602052604090205460ff166104205760405163323a6d4f60e21b815260040160405180910390fd5b6001600160a01b03841660009081526007602052604090205460ff166104595760405163323a6d4f60e21b815260040160405180910390fd5b6001600160a01b0384166104805760405163e6c4247b60e01b815260040160405180910390fd5b826000036104a15760405163162908e360e11b815260040160405180910390fd5b6040516370a0823160e01b815233600482015283907f00000000000000000000000000000000000000000000000000000000000000006001600160a01b0316906370a0823190602401602060405180830381865afa158015610507573d6000803e3d6000fd5b505050506040513d601f19601f8201168201806040525081019061052b91906114bc565b101561054a57604051631e9acf1760e31b815260040160405180910390fd5b6040516323b872dd60e01b81523360048201526001600160a01b038581166024830152604482018590527f000000000000000000000000000000000000000000000000000000000000000016906323b872dd906064016020604051808303816000875af11580156105bf573d6000803e3d6000fd5b505050506040513d601f19601f820116820180604052508101906105e391906114d5565b610600576040516312171d8360e31b815260040160405180910390fd5b3360009081526007602052604080822060029081018054870190556001600160a01b03871683529120600181018054860190556005015461064b91869161064691611508565b6111ee565b836001600160a01b0316336001600160a01b03167f81ed0b2281e26168dad3c376789763fe446c213f0f3fd69ad696d36052518c0b8585856040516106929392919061154a565b60405180910390a36106a360018055565b50505050565b6106b16111a0565b6106b96111ca565b3360009081526006602052604090205460ff166106e95760405163f921af6f60e01b815260040160405180910390fd5b6001600160a01b03841660009081526007602052604090205460ff166107225760405163323a6d4f60e21b815260040160405180910390fd5b826000036107435760405163162908e360e11b815260040160405180910390fd5b681b1ae4d6e2ef5000008311156107845760405163499c160960e11b815260048101849052681b1ae4d6e2ef50000060248201526044015b60405180910390fd5b6001600160a01b038416600090815260076020526040902060048101546107ad90600190611508565b4210156107ec5742600182600401546107c69190611508565b6107d0919061156d565b604051630f40d9bd60e31b815260040161077b91815260200190565b604051634d24848760e11b81526001600160a01b038681166004830152602482018690527f00000000000000000000000000000000000000000000000000000000000000001690639a49090e90604401600060405180830381600087803b15801561085657600080fd5b505af115801561086a573d6000803e3d6000fd5b5050505060018181018054860190556003820180548201905560058054860181554260048401558201546108a391879161064691611508565b6040516370a0823160e01b81526001600160a01b0380871660048301819052917f4d9290821abe39d1f3337c49a809c9426fbaaff8ce397a44d30509bc7bb5cfa7918791879187917f0000000000000000000000000000000000000000000000000000000000000000909116906370a0823190602401602060405180830381865afa158015610936573d6000803e3d6000fd5b505050506040513d601f19601f8201168201806040525081019061095a91906114bc565b60405161096a9493929190611580565b60405180910390a2506106a360018055565b610984611250565b61098c61127d565b565b610996611250565b61098c60006112cf565b6000806000806003546004546005547f00000000000000000000000000000000000000000000000000000000000000006001600160a01b03166370a08231306040518263ffffffff1660e01b8152600401610a0a91906001600160a01b0391909116815260200190565b602060405180830381865afa158015610a27573d6000803e3d6000fd5b505050506040513d601f19601f82011682018060405250810190610a4b91906114bc565b935093509350935090919293565b610a61611250565b61098c61131f565b610a716111a0565b610a796111ca565b3360009081526007602052604090205460ff1615610aaa57604051631c3948c360e21b815260040160405180910390fd5b6040516370a0823160e01b815233600482015268056bc75e2d63100000907f00000000000000000000000000000000000000000000000000000000000000006001600160a01b0316906370a0823190602401602060405180830381865afa158015610b19573d6000803e3d6000fd5b505050506040513d601f19601f82011682018060405250810190610b3d91906114bc565b1015610b5c57604051631e9acf1760e31b815260040160405180910390fd5b6040516323b872dd60e01b815233600482015230602482015268056bc75e2d6310000060448201527f00000000000000000000000000000000000000000000000000000000000000006001600160a01b0316906323b872dd906064016020604051808303816000875af1158015610bd7573d6000803e3d6000fd5b505050506040513d601f19601f82011682018060405250810190610bfb91906114d5565b610c18576040516312171d8360e31b815260040160405180910390fd5b6040805160e08101825260018082526001600160f81b03428181166020808601918252600086880181815268056bc75e2d631000006060890181815260808a0184815260a08b01858152606460c08d019081523380885260078952968e90209c519851909a166101000297151560ff16979097178b5592518a8a01555160028a015590516003808a019190915593516004808a01919091559551600590980197909755825490950190915582548501909255845193845290830152917f1ca6a07f4730ec26bf52fb5d81669e8fa2f163c979eea0f1cda76c125f921740910160405180910390a261098c60018055565b6001600160a01b038181166000818152600760209081526040808320815160e081018352815460ff811615158083526101009091046001600160f81b0316948201859052600183015482850181905260028401546060840181905260038501546080850181905260048087015460a087015260059096015460c086015295516370a0823160e01b815294850198909852959788978897889788978897889796959294927f000000000000000000000000000000000000000000000000000000000000000016906370a0823190602401602060405180830381865afa158015610df4573d6000803e3d6000fd5b505050506040513d601f19601f82011682018060405250810190610e1891906114bc565b60c090960151949e6001600160f81b039094169d50919b50995097509195509350915050565b610e46611250565b6001600160a01b038216610e6d5760405163e6c4247b60e01b815260040160405180910390fd5b6001600160a01b038216600081815260066020908152604091829020805460ff191685151590811790915591519182527f19e1fee2e38695e60ad3ef8c81759c22d6d7ee56f9b8805363820a50da468a18910160405180910390a25050565b610ed46111a0565b610edc6111ca565b3360009081526007602052604090205460ff16610f0c5760405163323a6d4f60e21b815260040160405180910390fd5b6001600160a01b03841660009081526007602052604090205460ff16610f455760405163323a6d4f60e21b815260040160405180910390fd5b6001600160a01b038416610f6c5760405163e6c4247b60e01b815260040160405180910390fd5b82600003610f8d5760405163162908e360e11b815260040160405180910390fd5b6040516370a0823160e01b815233600482015283907f00000000000000000000000000000000000000000000000000000000000000006001600160a01b0316906370a0823190602401602060405180830381865afa158015610ff3573d6000803e3d6000fd5b505050506040513d601f19601f8201168201806040525081019061101791906114bc565b101561103657604051631e9acf1760e31b815260040160405180910390fd5b6040516323b872dd60e01b81523360048201526001600160a01b038581166024830152604482018590527f000000000000000000000000000000000000000000000000000000000000000016906323b872dd906064016020604051808303816000875af11580156110ab573d6000803e3d6000fd5b505050506040513d601f19601f820116820180604052508101906110cf91906114d5565b6110ec576040516312171d8360e31b815260040160405180910390fd5b3360008181526008602090815260408083206001600160a01b03891680855290835281842080548901905584845260079092529182902060020180548701905590519091907fc51c7babeb40eebac21e6c8ad1aa77d754562346bb541c0f2773e3a4a1fea8f6906106929087908790879061154a565b61116a611250565b6001600160a01b03811661119457604051631e4fbdf760e01b81526000600482015260240161077b565b61119d816112cf565b50565b6002600154036111c357604051633ee5aeb560e01b815260040160405180910390fd5b6002600155565b60025460ff161561098c5760405163d93c066560e01b815260040160405180910390fd5b6001600160a01b038216600081815260076020908152604091829020600501805490859055825181815291820185905292917f5b88a2e3fc1a53234357ab78c104df11c33ccfa79886793654565ad70b8afb6e910160405180910390a2505050565b6000546001600160a01b0316331461098c5760405163118cdaa760e01b815233600482015260240161077b565b61128561135c565b6002805460ff191690557f5db9ee0a495bf2e6ff9c91a7834c1ba4fdd244a5e8aa4e537bd38aeae4b073aa335b6040516001600160a01b03909116815260200160405180910390a1565b600080546001600160a01b038381166001600160a01b0319831681178455604051919092169283917f8be0079c531659141344cd1fd0a4f28419497f9722a3daafe3b4186f6b6457e09190a35050565b6113276111ca565b6002805460ff191660011790557f62e78cea01bee320cd4e420270b5ea74000d11b0c9f74754ebdbfc544b05a2586112b23390565b60025460ff1661098c57604051638dfc202b60e01b815260040160405180910390fd5b80356001600160a01b038116811461139657600080fd5b919050565b600080600080606085870312156113b157600080fd5b6113ba8561137f565b935060208501359250604085013567ffffffffffffffff808211156113de57600080fd5b818701915087601f8301126113f257600080fd5b81358181111561140157600080fd5b88602082850101111561141357600080fd5b95989497505060200194505050565b60006020828403121561143457600080fd5b61143d8261137f565b9392505050565b6000806040838503121561145757600080fd5b6114608361137f565b915061146e6020840161137f565b90509250929050565b801515811461119d57600080fd5b6000806040838503121561149857600080fd5b6114a18361137f565b915060208301356114b181611477565b809150509250929050565b6000602082840312156114ce57600080fd5b5051919050565b6000602082840312156114e757600080fd5b815161143d81611477565b634e487b7160e01b600052601160045260246000fd5b8082018082111561151b5761151b6114f2565b92915050565b81835281816020850137506000828201602090810191909152601f909101601f19169091010190565b838152604060208201526000611564604083018486611521565b95945050505050565b8181038181111561151b5761151b6114f2565b84815260606020820152600061159a606083018587611521565b90508260408301529594505050505056fea26469706673582212202a0d671a3121233ea112624bf445e347f86652077bc5cb823c580b6a8b21926764736f6c63430008140033","opcodes":"PUSH1 0xA0 PUSH1 0x40 MSTORE CALLVALUE DUP1 ISZERO PUSH2 0x10 JUMPI PUSH1 0x0 DUP1 REVERT JUMPDEST POP PUSH1 0x40 MLOAD PUSH3 0x17B3 CODESIZE SUB DUP1 PUSH3 0x17B3 DUP4 CODECOPY DUP2 ADD PUSH1 0x40 DUP2 SWAP1 MSTORE PUSH2 0x31 SWAP2 PUSH2 0x140 JUMP JUMPDEST CALLER DUP1 PUSH2 0x57 JUMPI PUSH1 0x40 MLOAD PUSH4 0x1E4FBDF7 PUSH1 0xE0 SHL DUP2 MSTORE PUSH1 0x0 PUSH1 0x4 DUP3 ADD MSTORE PUSH1 0x24 ADD PUSH1 0x40 MLOAD DUP1 SWAP2 SUB SWAP1 REVERT JUMPDEST PUSH2 0x60 DUP2 PUSH2 0xF0 JUMP JUMPDEST POP PUSH1 0x1 DUP1 SSTORE PUSH1 0x1 PUSH1 0x1 PUSH1 0xA0 SHL SUB DUP2 AND PUSH2 0x8C JUMPI PUSH1 0x40 MLOAD PUSH4 0xE6C4247B PUSH1 0xE0 SHL DUP2 MSTORE PUSH1 0x4 ADD PUSH1 0x40 MLOAD DUP1 SWAP2 SUB SWAP1 REVERT JUMPDEST PUSH1 0x1 PUSH1 0x1 PUSH1 0xA0 SHL SUB DUP2 AND PUSH1 0x80 MSTORE CALLER PUSH1 0x0 DUP2 DUP2 MSTORE PUSH1 0x6 PUSH1 0x20 SWAP1 DUP2 MSTORE PUSH1 0x40 SWAP2 DUP3 SWAP1 KECCAK256 DUP1 SLOAD PUSH1 0xFF NOT AND PUSH1 0x1 SWAP1 DUP2 OR SWAP1 SWAP2 SSTORE SWAP2 MLOAD SWAP2 DUP3 MSTORE PUSH32 0x19E1FEE2E38695E60AD3EF8C81759C22D6D7EE56F9B8805363820A50DA468A18 SWAP2 ADD PUSH1 0x40 MLOAD DUP1 SWAP2 SUB SWAP1 LOG2 POP PUSH2 0x170 JUMP JUMPDEST PUSH1 0x0 DUP1 SLOAD PUSH1 0x1 PUSH1 0x1 PUSH1 0xA0 SHL SUB DUP4 DUP2 AND PUSH1 0x1 PUSH1 0x1 PUSH1 0xA0 SHL SUB NOT DUP4 AND DUP2 OR DUP5 SSTORE PUSH1 0x40 MLOAD SWAP2 SWAP1 SWAP3 AND SWAP3 DUP4 SWAP2 PUSH32 0x8BE0079C531659141344CD1FD0A4F28419497F9722A3DAAFE3B4186F6B6457E0 SWAP2 SWAP1 LOG3 POP POP JUMP JUMPDEST PUSH1 0x0 PUSH1 0x20 DUP3 DUP5 SUB SLT ISZERO PUSH2 0x152 JUMPI PUSH1 0x0 DUP1 REVERT JUMPDEST DUP2 MLOAD PUSH1 0x1 PUSH1 0x1 PUSH1 0xA0 SHL SUB DUP2 AND DUP2 EQ PUSH2 0x169 JUMPI PUSH1 0x0 DUP1 REVERT JUMPDEST SWAP4 SWAP3 POP POP POP JUMP JUMPDEST PUSH1 0x80 MLOAD PUSH2 0x15E1 PUSH3 0x1D2 PUSH1 0x0 CODECOPY PUSH1 0x0 DUP2 DUP2 PUSH2 0x1BA ADD MSTORE DUP2 DUP2 PUSH2 0x4B8 ADD MSTORE DUP2 DUP2 PUSH2 0x576 ADD MSTORE DUP2 DUP2 PUSH2 0x812 ADD MSTORE DUP2 DUP2 PUSH2 0x8ED ADD MSTORE DUP2 DUP2 PUSH2 0x9B1 ADD MSTORE DUP2 DUP2 PUSH2 0xACA ADD MSTORE DUP2 DUP2 PUSH2 0xB86 ADD MSTORE DUP2 DUP2 PUSH2 0xDAD ADD MSTORE DUP2 DUP2 PUSH2 0xFA4 ADD MSTORE PUSH2 0x1062 ADD MSTORE PUSH2 0x15E1 PUSH1 0x0 RETURN INVALID PUSH1 0x80 PUSH1 0x40 MSTORE CALLVALUE DUP1 ISZERO PUSH2 0x10 JUMPI PUSH1 0x0 DUP1 REVERT JUMPDEST POP PUSH1 0x4 CALLDATASIZE LT PUSH2 0x14D JUMPI PUSH1 0x0 CALLDATALOAD PUSH1 0xE0 SHR DUP1 PUSH4 0x8C7433E3 GT PUSH2 0xC3 JUMPI DUP1 PUSH4 0xD59BA0DF GT PUSH2 0x7C JUMPI DUP1 PUSH4 0xD59BA0DF EQ PUSH2 0x2FE JUMPI DUP1 PUSH4 0xE4250339 EQ PUSH2 0x311 JUMPI DUP1 PUSH4 0xEE172546 EQ PUSH2 0x324 JUMPI DUP1 PUSH4 0xF2FDE38B EQ PUSH2 0x32D JUMPI DUP1 PUSH4 0xF6D361CC EQ PUSH2 0x340 JUMPI DUP1 PUSH4 0xFD66091E EQ PUSH2 0x350 JUMPI PUSH1 0x0 DUP1 REVERT JUMPDEST DUP1 PUSH4 0x8C7433E3 EQ PUSH2 0x244 JUMPI DUP1 PUSH4 0x8DA5CB5B EQ PUSH2 0x24C JUMPI DUP1 PUSH4 0x8F0C86FA EQ PUSH2 0x25D JUMPI DUP1 PUSH4 0xB5695B38 EQ PUSH2 0x280 JUMPI DUP1 PUSH4 0xBF79B005 EQ PUSH2 0x2CA JUMPI DUP1 PUSH4 0xC5053712 EQ PUSH2 0x2F5 JUMPI PUSH1 0x0 DUP1 REVERT JUMPDEST DUP1 PUSH4 0x63EB9F90 GT PUSH2 0x115 JUMPI DUP1 PUSH4 0x63EB9F90 EQ PUSH2 0x1B5 JUMPI DUP1 PUSH4 0x715018A6 EQ PUSH2 0x1F4 JUMPI DUP1 PUSH4 0x74CF90EE EQ PUSH2 0x1FC JUMPI DUP1 PUSH4 0x7AFC8DF9 EQ PUSH2 0x204 JUMPI DUP1 PUSH4 0x836783DF EQ PUSH2 0x214 JUMPI DUP1 PUSH4 0x8456CB59 EQ PUSH2 0x23C JUMPI PUSH1 0x0 DUP1 REVERT JUMPDEST DUP1 PUSH4 0x31A0463 EQ PUSH2 0x152 JUMPI DUP1 PUSH4 0x2A7EA9D2 EQ PUSH2 0x167 JUMPI DUP1 PUSH4 0x3F4BA83A EQ PUSH2 0x17A JUMPI DUP1 PUSH4 0x5C975ABB EQ PUSH2 0x182 JUMPI DUP1 PUSH4 0x60C6D8AE EQ PUSH2 0x19E JUMPI JUMPDEST PUSH1 0x0 DUP1 REVERT JUMPDEST PUSH2 0x165 PUSH2 0x160 CALLDATASIZE PUSH1 0x4 PUSH2 0x139B JUMP JUMPDEST PUSH2 0x3E0 JUMP JUMPDEST STOP JUMPDEST PUSH2 0x165 PUSH2 0x175 CALLDATASIZE PUSH1 0x4 PUSH2 0x139B JUMP JUMPDEST PUSH2 0x6A9 JUMP JUMPDEST PUSH2 0x165 PUSH2 0x97C JUMP JUMPDEST PUSH1 0x2 SLOAD PUSH1 0xFF AND JUMPDEST PUSH1 0x40 MLOAD SWAP1 ISZERO ISZERO DUP2 MSTORE PUSH1 0x20 ADD JUMPDEST PUSH1 0x40 MLOAD DUP1 SWAP2 SUB SWAP1 RETURN JUMPDEST PUSH2 0x1A7 PUSH1 0x4 SLOAD DUP2 JUMP JUMPDEST PUSH1 0x40 MLOAD SWAP1 DUP2 MSTORE PUSH1 0x20 ADD PUSH2 0x195 JUMP JUMPDEST PUSH2 0x1DC PUSH32 0x0 DUP2 JUMP JUMPDEST PUSH1 0x40 MLOAD PUSH1 0x1 PUSH1 0x1 PUSH1 0xA0 SHL SUB SWAP1 SWAP2 AND DUP2 MSTORE PUSH1 0x20 ADD PUSH2 0x195 JUMP JUMPDEST PUSH2 0x165 PUSH2 0x98E JUMP JUMPDEST PUSH2 0x1A7 PUSH1 0x1 DUP2 JUMP JUMPDEST PUSH2 0x1A7 PUSH9 0x1B1AE4D6E2EF500000 DUP2 JUMP JUMPDEST PUSH2 0x21C PUSH2 0x9A0 JUMP JUMPDEST PUSH1 0x40 DUP1 MLOAD SWAP5 DUP6 MSTORE PUSH1 0x20 DUP6 ADD SWAP4 SWAP1 SWAP4 MSTORE SWAP2 DUP4 ADD MSTORE PUSH1 0x60 DUP3 ADD MSTORE PUSH1 0x80 ADD PUSH2 0x195 JUMP JUMPDEST PUSH2 0x165 PUSH2 0xA59 JUMP JUMPDEST PUSH2 0x165 PUSH2 0xA69 JUMP JUMPDEST PUSH1 0x0 SLOAD PUSH1 0x1 PUSH1 0x1 PUSH1 0xA0 SHL SUB AND PUSH2 0x1DC JUMP JUMPDEST PUSH2 0x189 PUSH2 0x26B CALLDATASIZE PUSH1 0x4 PUSH2 0x1422 JUMP JUMPDEST PUSH1 0x6 PUSH1 0x20 MSTORE PUSH1 0x0 SWAP1 DUP2 MSTORE PUSH1 0x40 SWAP1 KECCAK256 SLOAD PUSH1 0xFF AND DUP2 JUMP JUMPDEST PUSH2 0x293 PUSH2 0x28E CALLDATASIZE PUSH1 0x4 PUSH2 0x1422 JUMP JUMPDEST PUSH2 0xD08 JUMP JUMPDEST PUSH1 0x40 DUP1 MLOAD SWAP8 ISZERO ISZERO DUP9 MSTORE PUSH1 0x20 DUP9 ADD SWAP7 SWAP1 SWAP7 MSTORE SWAP5 DUP7 ADD SWAP4 SWAP1 SWAP4 MSTORE PUSH1 0x60 DUP6 ADD SWAP2 SWAP1 SWAP2 MSTORE PUSH1 0x80 DUP5 ADD MSTORE PUSH1 0xA0 DUP4 ADD MSTORE PUSH1 0xC0 DUP3 ADD MSTORE PUSH1 0xE0 ADD PUSH2 0x195 JUMP JUMPDEST PUSH2 0x1A7 PUSH2 0x2D8 CALLDATASIZE PUSH1 0x4 PUSH2 0x1444 JUMP JUMPDEST PUSH1 0x8 PUSH1 0x20 SWAP1 DUP2 MSTORE PUSH1 0x0 SWAP3 DUP4 MSTORE PUSH1 0x40 DUP1 DUP5 KECCAK256 SWAP1 SWAP2 MSTORE SWAP1 DUP3 MSTORE SWAP1 KECCAK256 SLOAD DUP2 JUMP JUMPDEST PUSH2 0x1A7 PUSH1 0x3 SLOAD DUP2 JUMP JUMPDEST PUSH2 0x165 PUSH2 0x30C CALLDATASIZE PUSH1 0x4 PUSH2 0x1485 JUMP JUMPDEST PUSH2 0xE3E JUMP JUMPDEST PUSH2 0x165 PUSH2 0x31F CALLDATASIZE PUSH1 0x4 PUSH2 0x139B JUMP JUMPDEST PUSH2 0xECC JUMP JUMPDEST PUSH2 0x1A7 PUSH1 0x5 SLOAD DUP2 JUMP JUMPDEST PUSH2 0x165 PUSH2 0x33B CALLDATASIZE PUSH1 0x4 PUSH2 0x1422 JUMP JUMPDEST PUSH2 0x1162 JUMP JUMPDEST PUSH2 0x1A7 PUSH9 0x56BC75E2D63100000 DUP2 JUMP JUMPDEST PUSH2 0x3A1 PUSH2 0x35E CALLDATASIZE PUSH1 0x4 PUSH2 0x1422 JUMP JUMPDEST PUSH1 0x7 PUSH1 0x20 MSTORE PUSH1 0x0 SWAP1 DUP2 MSTORE PUSH1 0x40 SWAP1 KECCAK256 DUP1 SLOAD PUSH1 0x1 DUP3 ADD SLOAD PUSH1 0x2 DUP4 ADD SLOAD PUSH1 0x3 DUP5 ADD SLOAD PUSH1 0x4 DUP6 ADD SLOAD PUSH1 0x5 SWAP1 SWAP6 ADD SLOAD PUSH1 0xFF DUP6 AND SWAP6 PUSH2 0x100 SWAP1 SWAP6 DIV PUSH1 0x1 PUSH1 0x1 PUSH1 0xF8 SHL SUB AND SWAP5 SWAP1 DUP8 JUMP JUMPDEST PUSH1 0x40 DUP1 MLOAD SWAP8 ISZERO ISZERO DUP9 MSTORE PUSH1 0x1 PUSH1 0x1 PUSH1 0xF8 SHL SUB SWAP1 SWAP7 AND PUSH1 0x20 DUP9 ADD MSTORE SWAP5 DUP7 ADD SWAP4 SWAP1 SWAP4 MSTORE PUSH1 0x60 DUP6 ADD SWAP2 SWAP1 SWAP2 MSTORE PUSH1 0x80 DUP5 ADD MSTORE PUSH1 0xA0 DUP4 ADD MSTORE PUSH1 0xC0 DUP3 ADD MSTORE PUSH1 0xE0 ADD PUSH2 0x195 JUMP JUMPDEST PUSH2 0x3E8 PUSH2 0x11A0 JUMP JUMPDEST PUSH2 0x3F0 PUSH2 0x11CA JUMP JUMPDEST CALLER PUSH1 0x0 SWAP1 DUP2 MSTORE PUSH1 0x7 PUSH1 0x20 MSTORE PUSH1 0x40 SWAP1 KECCAK256 SLOAD PUSH1 0xFF AND PUSH2 0x420 JUMPI PUSH1 0x40 MLOAD PUSH4 0x323A6D4F PUSH1 0xE2 SHL DUP2 MSTORE PUSH1 0x4 ADD PUSH1 0x40 MLOAD DUP1 SWAP2 SUB SWAP1 REVERT JUMPDEST PUSH1 0x1 PUSH1 0x1 PUSH1 0xA0 SHL SUB DUP5 AND PUSH1 0x0 SWAP1 DUP2 MSTORE PUSH1 0x7 PUSH1 0x20 MSTORE PUSH1 0x40 SWAP1 KECCAK256 SLOAD PUSH1 0xFF AND PUSH2 0x459 JUMPI PUSH1 0x40 MLOAD PUSH4 0x323A6D4F PUSH1 0xE2 SHL DUP2 MSTORE PUSH1 0x4 ADD PUSH1 0x40 MLOAD DUP1 SWAP2 SUB SWAP1 REVERT JUMPDEST PUSH1 0x1 PUSH1 0x1 PUSH1 0xA0 SHL SUB DUP5 AND PUSH2 0x480 JUMPI PUSH1 0x40 MLOAD PUSH4 0xE6C4247B PUSH1 0xE0 SHL DUP2 MSTORE PUSH1 0x4 ADD PUSH1 0x40 MLOAD DUP1 SWAP2 SUB SWAP1 REVERT JUMPDEST DUP3 PUSH1 0x0 SUB PUSH2 0x4A1 JUMPI PUSH1 0x40 MLOAD PUSH4 0x162908E3 PUSH1 0xE1 SHL DUP2 MSTORE PUSH1 0x4 ADD PUSH1 0x40 MLOAD DUP1 SWAP2 SUB SWAP1 REVERT JUMPDEST PUSH1 0x40 MLOAD PUSH4 0x70A08231 PUSH1 0xE0 SHL DUP2 MSTORE CALLER PUSH1 0x4 DUP3 ADD MSTORE DUP4 SWAP1 PUSH32 0x0 PUSH1 0x1 PUSH1 0x1 PUSH1 0xA0 SHL SUB AND SWAP1 PUSH4 0x70A08231 SWAP1 PUSH1 0x24 ADD PUSH1 0x20 PUSH1 0x40 MLOAD DUP1 DUP4 SUB DUP2 DUP7 GAS STATICCALL ISZERO DUP1 ISZERO PUSH2 0x507 JUMPI RETURNDATASIZE PUSH1 0x0 DUP1 RETURNDATACOPY RETURNDATASIZE PUSH1 0x0 REVERT JUMPDEST POP POP POP POP PUSH1 0x40 MLOAD RETURNDATASIZE PUSH1 0x1F NOT PUSH1 0x1F DUP3 ADD AND DUP3 ADD DUP1 PUSH1 0x40 MSTORE POP DUP2 ADD SWAP1 PUSH2 0x52B SWAP2 SWAP1 PUSH2 0x14BC JUMP JUMPDEST LT ISZERO PUSH2 0x54A JUMPI PUSH1 0x40 MLOAD PUSH4 0x1E9ACF17 PUSH1 0xE3 SHL DUP2 MSTORE PUSH1 0x4 ADD PUSH1 0x40 MLOAD DUP1 SWAP2 SUB SWAP1 REVERT JUMPDEST PUSH1 0x40 MLOAD PUSH4 0x23B872DD PUSH1 0xE0 SHL DUP2 MSTORE CALLER PUSH1 0x4 DUP3 ADD MSTORE PUSH1 0x1 PUSH1 0x1 PUSH1 0xA0 SHL SUB DUP6 DUP2 AND PUSH1 0x24 DUP4 ADD MSTORE PUSH1 0x44 DUP3 ADD DUP6 SWAP1 MSTORE PUSH32 0x0 AND SWAP1 PUSH4 0x23B872DD SWAP1 PUSH1 0x64 ADD PUSH1 0x20 PUSH1 0x40 MLOAD DUP1 DUP4 SUB DUP2 PUSH1 0x0 DUP8 GAS CALL ISZERO DUP1 ISZERO PUSH2 0x5BF JUMPI RETURNDATASIZE PUSH1 0x0 DUP1 RETURNDATACOPY RETURNDATASIZE PUSH1 0x0 REVERT JUMPDEST POP POP POP POP PUSH1 0x40 MLOAD RETURNDATASIZE PUSH1 0x1F NOT PUSH1 0x1F DUP3 ADD AND DUP3 ADD DUP1 PUSH1 0x40 MSTORE POP DUP2 ADD SWAP1 PUSH2 0x5E3 SWAP2 SWAP1 PUSH2 0x14D5 JUMP JUMPDEST PUSH2 0x600 JUMPI PUSH1 0x40 MLOAD PUSH4 0x12171D83 PUSH1 0xE3 SHL DUP2 MSTORE PUSH1 0x4 ADD PUSH1 0x40 MLOAD DUP1 SWAP2 SUB SWAP1 REVERT JUMPDEST CALLER PUSH1 0x0 SWAP1 DUP2 MSTORE PUSH1 0x7 PUSH1 0x20 MSTORE PUSH1 0x40 DUP1 DUP3 KECCAK256 PUSH1 0x2 SWAP1 DUP2 ADD DUP1 SLOAD DUP8 ADD SWAP1 SSTORE PUSH1 0x1 PUSH1 0x1 PUSH1 0xA0 SHL SUB DUP8 AND DUP4 MSTORE SWAP2 KECCAK256 PUSH1 0x1 DUP2 ADD DUP1 SLOAD DUP7 ADD SWAP1 SSTORE PUSH1 0x5 ADD SLOAD PUSH2 0x64B SWAP2 DUP7 SWAP2 PUSH2 0x646 SWAP2 PUSH2 0x1508 JUMP JUMPDEST PUSH2 0x11EE JUMP JUMPDEST DUP4 PUSH1 0x1 PUSH1 0x1 PUSH1 0xA0 SHL SUB AND CALLER PUSH1 0x1 PUSH1 0x1 PUSH1 0xA0 SHL SUB AND PUSH32 0x81ED0B2281E26168DAD3C376789763FE446C213F0F3FD69AD696D36052518C0B DUP6 DUP6 DUP6 PUSH1 0x40 MLOAD PUSH2 0x692 SWAP4 SWAP3 SWAP2 SWAP1 PUSH2 0x154A JUMP JUMPDEST PUSH1 0x40 MLOAD DUP1 SWAP2 SUB SWAP1 LOG3 PUSH2 0x6A3 PUSH1 0x1 DUP1 SSTORE JUMP JUMPDEST POP POP POP POP JUMP JUMPDEST PUSH2 0x6B1 PUSH2 0x11A0 JUMP JUMPDEST PUSH2 0x6B9 PUSH2 0x11CA JUMP JUMPDEST CALLER PUSH1 0x0 SWAP1 DUP2 MSTORE PUSH1 0x6 PUSH1 0x20 MSTORE PUSH1 0x40 SWAP1 KECCAK256 SLOAD PUSH1 0xFF AND PUSH2 0x6E9 JUMPI PUSH1 0x40 MLOAD PUSH4 0xF921AF6F PUSH1 0xE0 SHL DUP2 MSTORE PUSH1 0x4 ADD PUSH1 0x40 MLOAD DUP1 SWAP2 SUB SWAP1 REVERT JUMPDEST PUSH1 0x1 PUSH1 0x1 PUSH1 0xA0 SHL SUB DUP5 AND PUSH1 0x0 SWAP1 DUP2 MSTORE PUSH1 0x7 PUSH1 0x20 MSTORE PUSH1 0x40 SWAP1 KECCAK256 SLOAD PUSH1 0xFF AND PUSH2 0x722 JUMPI PUSH1 0x40 MLOAD PUSH4 0x323A6D4F PUSH1 0xE2 SHL DUP2 MSTORE PUSH1 0x4 ADD PUSH1 0x40 MLOAD DUP1 SWAP2 SUB SWAP1 REVERT JUMPDEST DUP3 PUSH1 0x0 SUB PUSH2 0x743 JUMPI PUSH1 0x40 MLOAD PUSH4 0x162908E3 PUSH1 0xE1 SHL DUP2 MSTORE PUSH1 0x4 ADD PUSH1 0x40 MLOAD DUP1 SWAP2 SUB SWAP1 REVERT JUMPDEST PUSH9 0x1B1AE4D6E2EF500000 DUP4 GT ISZERO PUSH2 0x784 JUMPI PUSH1 0x40 MLOAD PUSH4 0x499C1609 PUSH1 0xE1 SHL DUP2 MSTORE PUSH1 0x4 DUP2 ADD DUP5 SWAP1 MSTORE PUSH9 0x1B1AE4D6E2EF500000 PUSH1 0x24 DUP3 ADD MSTORE PUSH1 0x44 ADD JUMPDEST PUSH1 0x40 MLOAD DUP1 SWAP2 SUB SWAP1 REVERT JUMPDEST PUSH1 0x1 PUSH1 0x1 PUSH1 0xA0 SHL SUB DUP5 AND PUSH1 0x0 SWAP1 DUP2 MSTORE PUSH1 0x7 PUSH1 0x20 MSTORE PUSH1 0x40 SWAP1 KECCAK256 PUSH1 0x4 DUP2 ADD SLOAD PUSH2 0x7AD SWAP1 PUSH1 0x1 SWAP1 PUSH2 0x1508 JUMP JUMPDEST TIMESTAMP LT ISZERO PUSH2 0x7EC JUMPI TIMESTAMP PUSH1 0x1 DUP3 PUSH1 0x4 ADD SLOAD PUSH2 0x7C6 SWAP2 SWAP1 PUSH2 0x1508 JUMP JUMPDEST PUSH2 0x7D0 SWAP2 SWAP1 PUSH2 0x156D JUMP JUMPDEST PUSH1 0x40 MLOAD PUSH4 0xF40D9BD PUSH1 0xE3 SHL DUP2 MSTORE PUSH1 0x4 ADD PUSH2 0x77B SWAP2 DUP2 MSTORE PUSH1 0x20 ADD SWAP1 JUMP JUMPDEST PUSH1 0x40 MLOAD PUSH4 0x4D248487 PUSH1 0xE1 SHL DUP2 MSTORE PUSH1 0x1 PUSH1 0x1 PUSH1 0xA0 SHL SUB DUP7 DUP2 AND PUSH1 0x4 DUP4 ADD MSTORE PUSH1 0x24 DUP3 ADD DUP7 SWAP1 MSTORE PUSH32 0x0 AND SWAP1 PUSH4 0x9A49090E SWAP1 PUSH1 0x44 ADD PUSH1 0x0 PUSH1 0x40 MLOAD DUP1 DUP4 SUB DUP2 PUSH1 0x0 DUP8 DUP1 EXTCODESIZE ISZERO DUP1 ISZERO PUSH2 0x856 JUMPI PUSH1 0x0 DUP1 REVERT JUMPDEST POP GAS CALL ISZERO DUP1 ISZERO PUSH2 0x86A JUMPI RETURNDATASIZE PUSH1 0x0 DUP1 RETURNDATACOPY RETURNDATASIZE PUSH1 0x0 REVERT JUMPDEST POP POP POP POP PUSH1 0x1 DUP2 DUP2 ADD DUP1 SLOAD DUP7 ADD SWAP1 SSTORE PUSH1 0x3 DUP3 ADD DUP1 SLOAD DUP3 ADD SWAP1 SSTORE PUSH1 0x5 DUP1 SLOAD DUP7 ADD DUP2 SSTORE TIMESTAMP PUSH1 0x4 DUP5 ADD SSTORE DUP3 ADD SLOAD PUSH2 0x8A3 SWAP2 DUP8 SWAP2 PUSH2 0x646 SWAP2 PUSH2 0x1508 JUMP JUMPDEST PUSH1 0x40 MLOAD PUSH4 0x70A08231 PUSH1 0xE0 SHL DUP2 MSTORE PUSH1 0x1 PUSH1 0x1 PUSH1 0xA0 SHL SUB DUP1 DUP8 AND PUSH1 0x4 DUP4 ADD DUP2 SWAP1 MSTORE SWAP2 PUSH32 0x4D9290821ABE39D1F3337C49A809C9426FBAAFF8CE397A44D30509BC7BB5CFA7 SWAP2 DUP8 SWAP2 DUP8 SWAP2 DUP8 SWAP2 PUSH32 0x0 SWAP1 SWAP2 AND SWAP1 PUSH4 0x70A08231 SWAP1 PUSH1 0x24 ADD PUSH1 0x20 PUSH1 0x40 MLOAD DUP1 DUP4 SUB DUP2 DUP7 GAS STATICCALL ISZERO DUP1 ISZERO PUSH2 0x936 JUMPI RETURNDATASIZE PUSH1 0x0 DUP1 RETURNDATACOPY RETURNDATASIZE PUSH1 0x0 REVERT JUMPDEST POP POP POP POP PUSH1 0x40 MLOAD RETURNDATASIZE PUSH1 0x1F NOT PUSH1 0x1F DUP3 ADD AND DUP3 ADD DUP1 PUSH1 0x40 MSTORE POP DUP2 ADD SWAP1 PUSH2 0x95A SWAP2 SWAP1 PUSH2 0x14BC JUMP JUMPDEST PUSH1 0x40 MLOAD PUSH2 0x96A SWAP5 SWAP4 SWAP3 SWAP2 SWAP1 PUSH2 0x1580 JUMP JUMPDEST PUSH1 0x40 MLOAD DUP1 SWAP2 SUB SWAP1 LOG2 POP PUSH2 0x6A3 PUSH1 0x1 DUP1 SSTORE JUMP JUMPDEST PUSH2 0x984 PUSH2 0x1250 JUMP JUMPDEST PUSH2 0x98C PUSH2 0x127D JUMP JUMPDEST JUMP JUMPDEST PUSH2 0x996 PUSH2 0x1250 JUMP JUMPDEST PUSH2 0x98C PUSH1 0x0 PUSH2 0x12CF JUMP JUMPDEST PUSH1 0x0 DUP1 PUSH1 0x0 DUP1 PUSH1 0x3 SLOAD PUSH1 0x4 SLOAD PUSH1 0x5 SLOAD PUSH32 0x0 PUSH1 0x1 PUSH1 0x1 PUSH1 0xA0 SHL SUB AND PUSH4 0x70A08231 ADDRESS PUSH1 0x40 MLOAD DUP3 PUSH4 0xFFFFFFFF AND PUSH1 0xE0 SHL DUP2 MSTORE PUSH1 0x4 ADD PUSH2 0xA0A SWAP2 SWAP1 PUSH1 0x1 PUSH1 0x1 PUSH1 0xA0 SHL SUB SWAP2 SWAP1 SWAP2 AND DUP2 MSTORE PUSH1 0x20 ADD SWAP1 JUMP JUMPDEST PUSH1 0x20 PUSH1 0x40 MLOAD DUP1 DUP4 SUB DUP2 DUP7 GAS STATICCALL ISZERO DUP1 ISZERO PUSH2 0xA27 JUMPI RETURNDATASIZE PUSH1 0x0 DUP1 RETURNDATACOPY RETURNDATASIZE PUSH1 0x0 REVERT JUMPDEST POP POP POP POP PUSH1 0x40 MLOAD RETURNDATASIZE PUSH1 0x1F NOT PUSH1 0x1F DUP3 ADD AND DUP3 ADD DUP1 PUSH1 0x40 MSTORE POP DUP2 ADD SWAP1 PUSH2 0xA4B SWAP2 SWAP1 PUSH2 0x14BC JUMP JUMPDEST SWAP4 POP SWAP4 POP SWAP4 POP SWAP4 POP SWAP1 SWAP2 SWAP3 SWAP4 JUMP JUMPDEST PUSH2 0xA61 PUSH2 0x1250 JUMP JUMPDEST PUSH2 0x98C PUSH2 0x131F JUMP JUMPDEST PUSH2 0xA71 PUSH2 0x11A0 JUMP JUMPDEST PUSH2 0xA79 PUSH2 0x11CA JUMP JUMPDEST CALLER PUSH1 0x0 SWAP1 DUP2 MSTORE PUSH1 0x7 PUSH1 0x20 MSTORE PUSH1 0x40 SWAP1 KECCAK256 SLOAD PUSH1 0xFF AND ISZERO PUSH2 0xAAA JUMPI PUSH1 0x40 MLOAD PUSH4 0x1C3948C3 PUSH1 0xE2 SHL DUP2 MSTORE PUSH1 0x4 ADD PUSH1 0x40 MLOAD DUP1 SWAP2 SUB SWAP1 REVERT JUMPDEST PUSH1 0x40 MLOAD PUSH4 0x70A08231 PUSH1 0xE0 SHL DUP2 MSTORE CALLER PUSH1 0x4 DUP3 ADD MSTORE PUSH9 0x56BC75E2D63100000 SWAP1 PUSH32 0x0 PUSH1 0x1 PUSH1 0x1 PUSH1 0xA0 SHL SUB AND SWAP1 PUSH4 0x70A08231 SWAP1 PUSH1 0x24 ADD PUSH1 0x20 PUSH1 0x40 MLOAD DUP1 DUP4 SUB DUP2 DUP7 GAS STATICCALL ISZERO DUP1 ISZERO PUSH2 0xB19 JUMPI RETURNDATASIZE PUSH1 0x0 DUP1 RETURNDATACOPY RETURNDATASIZE PUSH1 0x0 REVERT JUMPDEST POP POP POP POP PUSH1 0x40 MLOAD RETURNDATASIZE PUSH1 0x1F NOT PUSH1 0x1F DUP3 ADD AND DUP3 ADD DUP1 PUSH1 0x40 MSTORE POP DUP2 ADD SWAP1 PUSH2 0xB3D SWAP2 SWAP1 PUSH2 0x14BC JUMP JUMPDEST LT ISZERO PUSH2 0xB5C JUMPI PUSH1 0x40 MLOAD PUSH4 0x1E9ACF17 PUSH1 0xE3 SHL DUP2 MSTORE PUSH1 0x4 ADD PUSH1 0x40 MLOAD DUP1 SWAP2 SUB SWAP1 REVERT JUMPDEST PUSH1 0x40 MLOAD PUSH4 0x23B872DD PUSH1 0xE0 SHL DUP2 MSTORE CALLER PUSH1 0x4 DUP3 ADD MSTORE ADDRESS PUSH1 0x24 DUP3 ADD MSTORE PUSH9 0x56BC75E2D63100000 PUSH1 0x44 DUP3 ADD MSTORE PUSH32 0x0 PUSH1 0x1 PUSH1 0x1 PUSH1 0xA0 SHL SUB AND SWAP1 PUSH4 0x23B872DD SWAP1 PUSH1 0x64 ADD PUSH1 0x20 PUSH1 0x40 MLOAD DUP1 DUP4 SUB DUP2 PUSH1 0x0 DUP8 GAS CALL ISZERO DUP1 ISZERO PUSH2 0xBD7 JUMPI RETURNDATASIZE PUSH1 0x0 DUP1 RETURNDATACOPY RETURNDATASIZE PUSH1 0x0 REVERT JUMPDEST POP POP POP POP PUSH1 0x40 MLOAD RETURNDATASIZE PUSH1 0x1F NOT PUSH1 0x1F DUP3 ADD AND DUP3 ADD DUP1 PUSH1 0x40 MSTORE POP DUP2 ADD SWAP1 PUSH2 0xBFB SWAP2 SWAP1 PUSH2 0x14D5 JUMP JUMPDEST PUSH2 0xC18 JUMPI PUSH1 0x40 MLOAD PUSH4 0x12171D83 PUSH1 0xE3 SHL DUP2 MSTORE PUSH1 0x4 ADD PUSH1 0x40 MLOAD DUP1 SWAP2 SUB SWAP1 REVERT JUMPDEST PUSH1 0x40 DUP1 MLOAD PUSH1 0xE0 DUP2 ADD DUP3 MSTORE PUSH1 0x1 DUP1 DUP3 MSTORE PUSH1 0x1 PUSH1 0x1 PUSH1 0xF8 SHL SUB TIMESTAMP DUP2 DUP2 AND PUSH1 0x20 DUP1 DUP7 ADD SWAP2 DUP3 MSTORE PUSH1 0x0 DUP7 DUP9 ADD DUP2 DUP2 MSTORE PUSH9 0x56BC75E2D63100000 PUSH1 0x60 DUP10 ADD DUP2 DUP2 MSTORE PUSH1 0x80 DUP11 ADD DUP5 DUP2 MSTORE PUSH1 0xA0 DUP12 ADD DUP6 DUP2 MSTORE PUSH1 0x64 PUSH1 0xC0 DUP14 ADD SWAP1 DUP2 MSTORE CALLER DUP1 DUP9 MSTORE PUSH1 0x7 DUP10 MSTORE SWAP7 DUP15 SWAP1 KECCAK256 SWAP13 MLOAD SWAP9 MLOAD SWAP1 SWAP11 AND PUSH2 0x100 MUL SWAP8 ISZERO ISZERO PUSH1 0xFF AND SWAP8 SWAP1 SWAP8 OR DUP12 SSTORE SWAP3 MLOAD DUP11 DUP11 ADD SSTORE MLOAD PUSH1 0x2 DUP11 ADD SSTORE SWAP1 MLOAD PUSH1 0x3 DUP1 DUP11 ADD SWAP2 SWAP1 SWAP2 SSTORE SWAP4 MLOAD PUSH1 0x4 DUP1 DUP11 ADD SWAP2 SWAP1 SWAP2 SSTORE SWAP6 MLOAD PUSH1 0x5 SWAP1 SWAP9 ADD SWAP8 SWAP1 SWAP8 SSTORE DUP3 SLOAD SWAP1 SWAP6 ADD SWAP1 SWAP2 SSTORE DUP3 SLOAD DUP6 ADD SWAP1 SWAP3 SSTORE DUP5 MLOAD SWAP4 DUP5 MSTORE SWAP1 DUP4 ADD MSTORE SWAP2 PUSH32 0x1CA6A07F4730EC26BF52FB5D81669E8FA2F163C979EEA0F1CDA76C125F921740 SWAP2 ADD PUSH1 0x40 MLOAD DUP1 SWAP2 SUB SWAP1 LOG2 PUSH2 0x98C PUSH1 0x1 DUP1 SSTORE JUMP JUMPDEST PUSH1 0x1 PUSH1 0x1 PUSH1 0xA0 SHL SUB DUP2 DUP2 AND PUSH1 0x0 DUP2 DUP2 MSTORE PUSH1 0x7 PUSH1 0x20 SWAP1 DUP2 MSTORE PUSH1 0x40 DUP1 DUP4 KECCAK256 DUP2 MLOAD PUSH1 0xE0 DUP2 ADD DUP4 MSTORE DUP2 SLOAD PUSH1 0xFF DUP2 AND ISZERO ISZERO DUP1 DUP4 MSTORE PUSH2 0x100 SWAP1 SWAP2 DIV PUSH1 0x1 PUSH1 0x1 PUSH1 0xF8 SHL SUB AND SWAP5 DUP3 ADD DUP6 SWAP1 MSTORE PUSH1 0x1 DUP4 ADD SLOAD DUP3 DUP6 ADD DUP2 SWAP1 MSTORE PUSH1 0x2 DUP5 ADD SLOAD PUSH1 0x60 DUP5 ADD DUP2 SWAP1 MSTORE PUSH1 0x3 DUP6 ADD SLOAD PUSH1 0x80 DUP6 ADD DUP2 SWAP1 MSTORE PUSH1 0x4 DUP1 DUP8 ADD SLOAD PUSH1 0xA0 DUP8 ADD MSTORE PUSH1 0x5 SWAP1 SWAP7 ADD SLOAD PUSH1 0xC0 DUP7 ADD MSTORE SWAP6 MLOAD PUSH4 0x70A08231 PUSH1 0xE0 SHL DUP2 MSTORE SWAP5 DUP6 ADD SWAP9 SWAP1 SWAP9 MSTORE SWAP6 SWAP8 DUP9 SWAP8 DUP9 SWAP8 DUP9 SWAP8 DUP9 SWAP8 DUP9 SWAP8 DUP9 SWAP8 SWAP7 SWAP6 SWAP3 SWAP5 SWAP3 PUSH32 0x0 AND SWAP1 PUSH4 0x70A08231 SWAP1 PUSH1 0x24 ADD PUSH1 0x20 PUSH1 0x40 MLOAD DUP1 DUP4 SUB DUP2 DUP7 GAS STATICCALL ISZERO DUP1 ISZERO PUSH2 0xDF4 JUMPI RETURNDATASIZE PUSH1 0x0 DUP1 RETURNDATACOPY RETURNDATASIZE PUSH1 0x0 REVERT JUMPDEST POP POP POP POP PUSH1 0x40 MLOAD RETURNDATASIZE PUSH1 0x1F NOT PUSH1 0x1F DUP3 ADD AND DUP3 ADD DUP1 PUSH1 0x40 MSTORE POP DUP2 ADD SWAP1 PUSH2 0xE18 SWAP2 SWAP1 PUSH2 0x14BC JUMP JUMPDEST PUSH1 0xC0 SWAP1 SWAP7 ADD MLOAD SWAP5 SWAP15 PUSH1 0x1 PUSH1 0x1 PUSH1 0xF8 SHL SUB SWAP1 SWAP5 AND SWAP14 POP SWAP2 SWAP12 POP SWAP10 POP SWAP8 POP SWAP2 SWAP6 POP SWAP4 POP SWAP2 POP POP JUMP JUMPDEST PUSH2 0xE46 PUSH2 0x1250 JUMP JUMPDEST PUSH1 0x1 PUSH1 0x1 PUSH1 0xA0 SHL SUB DUP3 AND PUSH2 0xE6D JUMPI PUSH1 0x40 MLOAD PUSH4 0xE6C4247B PUSH1 0xE0 SHL DUP2 MSTORE PUSH1 0x4 ADD PUSH1 0x40 MLOAD DUP1 SWAP2 SUB SWAP1 REVERT JUMPDEST PUSH1 0x1 PUSH1 0x1 PUSH1 0xA0 SHL SUB DUP3 AND PUSH1 0x0 DUP2 DUP2 MSTORE PUSH1 0x6 PUSH1 0x20 SWAP1 DUP2 MSTORE PUSH1 0x40 SWAP2 DUP3 SWAP1 KECCAK256 DUP1 SLOAD PUSH1 0xFF NOT AND DUP6 ISZERO ISZERO SWAP1 DUP2 OR SWAP1 SWAP2 SSTORE SWAP2 MLOAD SWAP2 DUP3 MSTORE PUSH32 0x19E1FEE2E38695E60AD3EF8C81759C22D6D7EE56F9B8805363820A50DA468A18 SWAP2 ADD PUSH1 0x40 MLOAD DUP1 SWAP2 SUB SWAP1 LOG2 POP POP JUMP JUMPDEST PUSH2 0xED4 PUSH2 0x11A0 JUMP JUMPDEST PUSH2 0xEDC PUSH2 0x11CA JUMP JUMPDEST CALLER PUSH1 0x0 SWAP1 DUP2 MSTORE PUSH1 0x7 PUSH1 0x20 MSTORE PUSH1 0x40 SWAP1 KECCAK256 SLOAD PUSH1 0xFF AND PUSH2 0xF0C JUMPI PUSH1 0x40 MLOAD PUSH4 0x323A6D4F PUSH1 0xE2 SHL DUP2 MSTORE PUSH1 0x4 ADD PUSH1 0x40 MLOAD DUP1 SWAP2 SUB SWAP1 REVERT JUMPDEST PUSH1 0x1 PUSH1 0x1 PUSH1 0xA0 SHL SUB DUP5 AND PUSH1 0x0 SWAP1 DUP2 MSTORE PUSH1 0x7 PUSH1 0x20 MSTORE PUSH1 0x40 SWAP1 KECCAK256 SLOAD PUSH1 0xFF AND PUSH2 0xF45 JUMPI PUSH1 0x40 MLOAD PUSH4 0x323A6D4F PUSH1 0xE2 SHL DUP2 MSTORE PUSH1 0x4 ADD PUSH1 0x40 MLOAD DUP1 SWAP2 SUB SWAP1 REVERT JUMPDEST PUSH1 0x1 PUSH1 0x1 PUSH1 0xA0 SHL SUB DUP5 AND PUSH2 0xF6C JUMPI PUSH1 0x40 MLOAD PUSH4 0xE6C4247B PUSH1 0xE0 SHL DUP2 MSTORE PUSH1 0x4 ADD PUSH1 0x40 MLOAD DUP1 SWAP2 SUB SWAP1 REVERT JUMPDEST DUP3 PUSH1 0x0 SUB PUSH2 0xF8D JUMPI PUSH1 0x40 MLOAD PUSH4 0x162908E3 PUSH1 0xE1 SHL DUP2 MSTORE PUSH1 0x4 ADD PUSH1 0x40 MLOAD DUP1 SWAP2 SUB SWAP1 REVERT JUMPDEST PUSH1 0x40 MLOAD PUSH4 0x70A08231 PUSH1 0xE0 SHL DUP2 MSTORE CALLER PUSH1 0x4 DUP3 ADD MSTORE DUP4 SWAP1 PUSH32 0x0 PUSH1 0x1 PUSH1 0x1 PUSH1 0xA0 SHL SUB AND SWAP1 PUSH4 0x70A08231 SWAP1 PUSH1 0x24 ADD PUSH1 0x20 PUSH1 0x40 MLOAD DUP1 DUP4 SUB DUP2 DUP7 GAS STATICCALL ISZERO DUP1 ISZERO PUSH2 0xFF3 JUMPI RETURNDATASIZE PUSH1 0x0 DUP1 RETURNDATACOPY RETURNDATASIZE PUSH1 0x0 REVERT JUMPDEST POP POP POP POP PUSH1 0x40 MLOAD RETURNDATASIZE PUSH1 0x1F NOT PUSH1 0x1F DUP3 ADD AND DUP3 ADD DUP1 PUSH1 0x40 MSTORE POP DUP2 ADD SWAP1 PUSH2 0x1017 SWAP2 SWAP1 PUSH2 0x14BC JUMP JUMPDEST LT ISZERO PUSH2 0x1036 JUMPI PUSH1 0x40 MLOAD PUSH4 0x1E9ACF17 PUSH1 0xE3 SHL DUP2 MSTORE PUSH1 0x4 ADD PUSH1 0x40 MLOAD DUP1 SWAP2 SUB SWAP1 REVERT JUMPDEST PUSH1 0x40 MLOAD PUSH4 0x23B872DD PUSH1 0xE0 SHL DUP2 MSTORE CALLER PUSH1 0x4 DUP3 ADD MSTORE PUSH1 0x1 PUSH1 0x1 PUSH1 0xA0 SHL SUB DUP6 DUP2 AND PUSH1 0x24 DUP4 ADD MSTORE PUSH1 0x44 DUP3 ADD DUP6 SWAP1 MSTORE PUSH32 0x0 AND SWAP1 PUSH4 0x23B872DD SWAP1 PUSH1 0x64 ADD PUSH1 0x20 PUSH1 0x40 MLOAD DUP1 DUP4 SUB DUP2 PUSH1 0x0 DUP8 GAS CALL ISZERO DUP1 ISZERO PUSH2 0x10AB JUMPI RETURNDATASIZE PUSH1 0x0 DUP1 RETURNDATACOPY RETURNDATASIZE PUSH1 0x0 REVERT JUMPDEST POP POP POP POP PUSH1 0x40 MLOAD RETURNDATASIZE PUSH1 0x1F NOT PUSH1 0x1F DUP3 ADD AND DUP3 ADD DUP1 PUSH1 0x40 MSTORE POP DUP2 ADD SWAP1 PUSH2 0x10CF SWAP2 SWAP1 PUSH2 0x14D5 JUMP JUMPDEST PUSH2 0x10EC JUMPI PUSH1 0x40 MLOAD PUSH4 0x12171D83 PUSH1 0xE3 SHL DUP2 MSTORE PUSH1 0x4 ADD PUSH1 0x40 MLOAD DUP1 SWAP2 SUB SWAP1 REVERT JUMPDEST CALLER PUSH1 0x0 DUP2 DUP2 MSTORE PUSH1 0x8 PUSH1 0x20 SWAP1 DUP2 MSTORE PUSH1 0x40 DUP1 DUP4 KECCAK256 PUSH1 0x1 PUSH1 0x1 PUSH1 0xA0 SHL SUB DUP10 AND DUP1 DUP6 MSTORE SWAP1 DUP4 MSTORE DUP2 DUP5 KECCAK256 DUP1 SLOAD DUP10 ADD SWAP1 SSTORE DUP5 DUP5 MSTORE PUSH1 0x7 SWAP1 SWAP3 MSTORE SWAP2 DUP3 SWAP1 KECCAK256 PUSH1 0x2 ADD DUP1 SLOAD DUP8 ADD SWAP1 SSTORE SWAP1 MLOAD SWAP1 SWAP2 SWAP1 PUSH32 0xC51C7BABEB40EEBAC21E6C8AD1AA77D754562346BB541C0F2773E3A4A1FEA8F6 SWAP1 PUSH2 0x692 SWAP1 DUP8 SWAP1 DUP8 SWAP1 DUP8 SWAP1 PUSH2 0x154A JUMP JUMPDEST PUSH2 0x116A PUSH2 0x1250 JUMP JUMPDEST PUSH1 0x1 PUSH1 0x1 PUSH1 0xA0 SHL SUB DUP2 AND PUSH2 0x1194 JUMPI PUSH1 0x40 MLOAD PUSH4 0x1E4FBDF7 PUSH1 0xE0 SHL DUP2 MSTORE PUSH1 0x0 PUSH1 0x4 DUP3 ADD MSTORE PUSH1 0x24 ADD PUSH2 0x77B JUMP JUMPDEST PUSH2 0x119D DUP2 PUSH2 0x12CF JUMP JUMPDEST POP JUMP JUMPDEST PUSH1 0x2 PUSH1 0x1 SLOAD SUB PUSH2 0x11C3 JUMPI PUSH1 0x40 MLOAD PUSH4 0x3EE5AEB5 PUSH1 0xE0 SHL DUP2 MSTORE PUSH1 0x4 ADD PUSH1 0x40 MLOAD DUP1 SWAP2 SUB SWAP1 REVERT JUMPDEST PUSH1 0x2 PUSH1 0x1 SSTORE JUMP JUMPDEST PUSH1 0x2 SLOAD PUSH1 0xFF AND ISZERO PUSH2 0x98C JUMPI PUSH1 0x40 MLOAD PUSH4 0xD93C0665 PUSH1 0xE0 SHL DUP2 MSTORE PUSH1 0x4 ADD PUSH1 0x40 MLOAD DUP1 SWAP2 SUB SWAP1 REVERT JUMPDEST PUSH1 0x1 PUSH1 0x1 PUSH1 0xA0 SHL SUB DUP3 AND PUSH1 0x0 DUP2 DUP2 MSTORE PUSH1 0x7 PUSH1 0x20 SWAP1 DUP2 MSTORE PUSH1 0x40 SWAP2 DUP3 SWAP1 KECCAK256 PUSH1 0x5 ADD DUP1 SLOAD SWAP1 DUP6 SWAP1 SSTORE DUP3 MLOAD DUP2 DUP2 MSTORE SWAP2 DUP3 ADD DUP6 SWAP1 MSTORE SWAP3 SWAP2 PUSH32 0x5B88A2E3FC1A53234357AB78C104DF11C33CCFA79886793654565AD70B8AFB6E SWAP2 ADD PUSH1 0x40 MLOAD DUP1 SWAP2 SUB SWAP1 LOG2 POP POP POP JUMP JUMPDEST PUSH1 0x0 SLOAD PUSH1 0x1 PUSH1 0x1 PUSH1 0xA0 SHL SUB AND CALLER EQ PUSH2 0x98C JUMPI PUSH1 0x40 MLOAD PUSH4 0x118CDAA7 PUSH1 0xE0 SHL DUP2 MSTORE CALLER PUSH1 0x4 DUP3 ADD MSTORE PUSH1 0x24 ADD PUSH2 0x77B JUMP JUMPDEST PUSH2 0x1285 PUSH2 0x135C JUMP JUMPDEST PUSH1 0x2 DUP1 SLOAD PUSH1 0xFF NOT AND SWAP1 SSTORE PUSH32 0x5DB9EE0A495BF2E6FF9C91A7834C1BA4FDD244A5E8AA4E537BD38AEAE4B073AA CALLER JUMPDEST PUSH1 0x40 MLOAD PUSH1 0x1 PUSH1 0x1 PUSH1 0xA0 SHL SUB SWAP1 SWAP2 AND DUP2 MSTORE PUSH1 0x20 ADD PUSH1 0x40 MLOAD DUP1 SWAP2 SUB SWAP1 LOG1 JUMP JUMPDEST PUSH1 0x0 DUP1 SLOAD PUSH1 0x1 PUSH1 0x1 PUSH1 0xA0 SHL SUB DUP4 DUP2 AND PUSH1 0x1 PUSH1 0x1 PUSH1 0xA0 SHL SUB NOT DUP4 AND DUP2 OR DUP5 SSTORE PUSH1 0x40 MLOAD SWAP2 SWAP1 SWAP3 AND SWAP3 DUP4 SWAP2 PUSH32 0x8BE0079C531659141344CD1FD0A4F28419497F9722A3DAAFE3B4186F6B6457E0 SWAP2 SWAP1 LOG3 POP POP JUMP JUMPDEST PUSH2 0x1327 PUSH2 0x11CA JUMP JUMPDEST PUSH1 0x2 DUP1 SLOAD PUSH1 0xFF NOT AND PUSH1 0x1 OR SWAP1 SSTORE PUSH32 0x62E78CEA01BEE320CD4E420270B5EA74000D11B0C9F74754EBDBFC544B05A258 PUSH2 0x12B2 CALLER SWAP1 JUMP JUMPDEST PUSH1 0x2 SLOAD PUSH1 0xFF AND PUSH2 0x98C JUMPI PUSH1 0x40 MLOAD PUSH4 0x8DFC202B PUSH1 0xE0 SHL DUP2 MSTORE PUSH1 0x4 ADD PUSH1 0x40 MLOAD DUP1 SWAP2 SUB SWAP1 REVERT JUMPDEST DUP1 CALLDATALOAD PUSH1 0x1 PUSH1 0x1 PUSH1 0xA0 SHL SUB DUP2 AND DUP2 EQ PUSH2 0x1396 JUMPI PUSH1 0x0 DUP1 REVERT JUMPDEST SWAP2 SWAP1 POP JUMP JUMPDEST PUSH1 0x0 DUP1 PUSH1 0x0 DUP1 PUSH1 0x60 DUP6 DUP8 SUB SLT ISZERO PUSH2 0x13B1 JUMPI PUSH1 0x0 DUP1 REVERT JUMPDEST PUSH2 0x13BA DUP6 PUSH2 0x137F JUMP JUMPDEST SWAP4 POP PUSH1 0x20 DUP6 ADD CALLDATALOAD SWAP3 POP PUSH1 0x40 DUP6 ADD CALLDATALOAD PUSH8 0xFFFFFFFFFFFFFFFF DUP1 DUP3 GT ISZERO PUSH2 0x13DE JUMPI PUSH1 0x0 DUP1 REVERT JUMPDEST DUP2 DUP8 ADD SWAP2 POP DUP8 PUSH1 0x1F DUP4 ADD SLT PUSH2 0x13F2 JUMPI PUSH1 0x0 DUP1 REVERT JUMPDEST DUP2 CALLDATALOAD DUP2 DUP2 GT ISZERO PUSH2 0x1401 JUMPI PUSH1 0x0 DUP1 REVERT JUMPDEST DUP9 PUSH1 0x20 DUP3 DUP6 ADD ADD GT ISZERO PUSH2 0x1413 JUMPI PUSH1 0x0 DUP1 REVERT JUMPDEST SWAP6 SWAP9 SWAP5 SWAP8 POP POP PUSH1 0x20 ADD SWAP5 POP POP POP JUMP JUMPDEST PUSH1 0x0 PUSH1 0x20 DUP3 DUP5 SUB SLT ISZERO PUSH2 0x1434 JUMPI PUSH1 0x0 DUP1 REVERT JUMPDEST PUSH2 0x143D DUP3 PUSH2 0x137F JUMP JUMPDEST SWAP4 SWAP3 POP POP POP JUMP JUMPDEST PUSH1 0x0 DUP1 PUSH1 0x40 DUP4 DUP6 SUB SLT ISZERO PUSH2 0x1457 JUMPI PUSH1 0x0 DUP1 REVERT JUMPDEST PUSH2 0x1460 DUP4 PUSH2 0x137F JUMP JUMPDEST SWAP2 POP PUSH2 0x146E PUSH1 0x20 DUP5 ADD PUSH2 0x137F JUMP JUMPDEST SWAP1 POP SWAP3 POP SWAP3 SWAP1 POP JUMP JUMPDEST DUP1 ISZERO ISZERO DUP2 EQ PUSH2 0x119D JUMPI PUSH1 0x0 DUP1 REVERT JUMPDEST PUSH1 0x0 DUP1 PUSH1 0x40 DUP4 DUP6 SUB SLT ISZERO PUSH2 0x1498 JUMPI PUSH1 0x0 DUP1 REVERT JUMPDEST PUSH2 0x14A1 DUP4 PUSH2 0x137F JUMP JUMPDEST SWAP2 POP PUSH1 0x20 DUP4 ADD CALLDATALOAD PUSH2 0x14B1 DUP2 PUSH2 0x1477 JUMP JUMPDEST DUP1 SWAP2 POP POP SWAP3 POP SWAP3 SWAP1 POP JUMP JUMPDEST PUSH1 0x0 PUSH1 0x20 DUP3 DUP5 SUB SLT ISZERO PUSH2 0x14CE JUMPI PUSH1 0x0 DUP1 REVERT JUMPDEST POP MLOAD SWAP2 SWAP1 POP JUMP JUMPDEST PUSH1 0x0 PUSH1 0x20 DUP3 DUP5 SUB SLT ISZERO PUSH2 0x14E7 JUMPI PUSH1 0x0 DUP1 REVERT JUMPDEST DUP2 MLOAD PUSH2 0x143D DUP2 PUSH2 0x1477 JUMP JUMPDEST PUSH4 0x4E487B71 PUSH1 0xE0 SHL PUSH1 0x0 MSTORE PUSH1 0x11 PUSH1 0x4 MSTORE PUSH1 0x24 PUSH1 0x0 REVERT JUMPDEST DUP1 DUP3 ADD DUP1 DUP3 GT ISZERO PUSH2 0x151B JUMPI PUSH2 0x151B PUSH2 0x14F2 JUMP JUMPDEST SWAP3 SWAP2 POP POP JUMP JUMPDEST DUP2 DUP4 MSTORE DUP2 DUP2 PUSH1 0x20 DUP6 ADD CALLDATACOPY POP PUSH1 0x0 DUP3 DUP3 ADD PUSH1 0x20 SWAP1 DUP2 ADD SWAP2 SWAP1 SWAP2 MSTORE PUSH1 0x1F SWAP1 SWAP2 ADD PUSH1 0x1F NOT AND SWAP1 SWAP2 ADD ADD SWAP1 JUMP JUMPDEST DUP4 DUP2 MSTORE PUSH1 0x40 PUSH1 0x20 DUP3 ADD MSTORE PUSH1 0x0 PUSH2 0x1564 PUSH1 0x40 DUP4 ADD DUP5 DUP7 PUSH2 0x1521 JUMP JUMPDEST SWAP6 SWAP5 POP POP POP POP POP JUMP JUMPDEST DUP2 DUP2 SUB DUP2 DUP2 GT ISZERO PUSH2 0x151B JUMPI PUSH2 0x151B PUSH2 0x14F2 JUMP JUMPDEST DUP5 DUP2 MSTORE PUSH1 0x60 PUSH1 0x20 DUP3 ADD MSTORE PUSH1 0x0 PUSH2 0x159A PUSH1 0x60 DUP4 ADD DUP6 DUP8 PUSH2 0x1521 JUMP JUMPDEST SWAP1 POP DUP3 PUSH1 0x40 DUP4 ADD MSTORE SWAP6 SWAP5 POP POP POP POP POP JUMP INVALID LOG2 PUSH5 0x6970667358 0x22 SLT KECCAK256 0x2A 0xD PUSH8 0x1A3121233EA11262 0x4B DELEGATECALL GASLIMIT 0xE3 SELFBALANCE 0xF8 PUSH7 0x52077BC5CB823C PC SIGNEXTEND PUSH11 0x8B21926764736F6C634300 ADDMOD EQ STOP CALLER "},"methodIdentifiers":{"ENTRY_FEE()":"f6d361cc","MAX_REWARD_PER_ACTION()":"7afc8df9","REWARD_COOLDOWN()":"74cf90ee","agentToAgentTransfers(address,address)":"bf79b005","agents(address)":"fd66091e","distributeReward(address,uint256,string)":"2a7ea9d2","enterWorld()":"8c7433e3","getAgentStats(address)":"b5695b38","getWorldStats()":"836783df","isDistributor(address)":"8f0c86fa","monToken()":"63eb9f90","owner()":"8da5cb5b","pause()":"8456cb59","paused()":"5c975abb","purchaseItem(address,uint256,string)":"031a0463","renounceOwnership()":"715018a6","setDistributor(address,bool)":"d59ba0df","totalAgents()":"c5053712","totalFeesCollected()":"60c6d8ae","totalRewardsDistributed()":"ee172546","transferOwnership(address)":"f2fde38b","transferToAgent(address,uint256,string)":"e4250339","unpause()":"3f4ba83a"}}}}}