{
  "_format": "hh-sol-artifact-1",
  "contractName": "MONToken",
  "sourceName": "contracts/MONToken.sol",
  "abi": [
    {
      "inputs": [],
      "stateMutability": "nonpayable",
      "type": "constructor"
    },
    {
      "inputs": [
        {
          "internalType": "uint256",
          "name": "size",
          "type": "uint256"
        },
        {
          "internalType": "uint256",
          "name": "maximum",
          "type": "uint256"
        }
      ],
      "name": "BatchTooLarge",
      "type": "error"
    },
    {
      "inputs": [
        {
          "internalType": "address",
          "name": "spender",
          "type": "address"
        },
        {
          "internalType": "uint256",
          "name": "allowance",
          "type": "uint256"
        },
        {
          "internalType": "uint256",
          "name": "needed",
          "type": "uint256"
        }
      ],
      "name": "ERC20InsufficientAllowance",
      "type": "error"
    },
    {
      "inputs": [
        {
          "internalType": "address",
          "name": "sender",
          "type": "address"
        },
        {
          "internalType": "uint256",
          "name": "balance",
          "type": "uint256"
        },
        {
          "internalType": "uint256",
          "name": "needed",
          "type": "uint256"
        }
      ],
      "name": "ERC20InsufficientBalance",
      "type": "error"
    },
    {
      "inputs": [
        {
          "internalType": "address",
          "name": "approver",
          "type": "address"
        }
      ],
      "name": "ERC20InvalidApprover",
      "type": "error"
    },
    {
      "inputs": [
        {
          "internalType": "address",
          "name": "receiver",
          "type": "address"
        }
      ],
      "name": "ERC20InvalidReceiver",
      "type": "error"
    },
    {
      "inputs": [
        {
          "internalType": "address",
          "name": "sender",
          "type": "address"
        }
      ],
      "name": "ERC20InvalidSender",
      "type": "error"
    },
    {
      "inputs": [
        {
          "internalType": "address",
          "name": "spender",
          "type": "address"
        }
      ],
      "name": "ERC20InvalidSpender",
      "type": "error"
    },
    {
      "inputs": [],
      "name": "EmptyAgentArray",
      "type": "error"
    },
    {
      "inputs": [],
      "name": "EnforcedPause",
      "type": "error"
    },
    {
      "inputs": [],
      "name": "ExpectedPause",
      "type": "error"
    },
    {
      "inputs": [],
      "name": "InvalidAgentAddress",
      "type": "error"
    },
    {
      "inputs": [],
      "name": "InvalidTreasuryAddress",
      "type": "error"
    },
    {
      "inputs": [],
      "name": "OnlyTreasury",
      "type": "error"
    },
    {
      "inputs": [
        {
          "internalType": "address",
          "name": "owner",
          "type": "address"
        }
      ],
      "name": "OwnableInvalidOwner",
      "type": "error"
    },
    {
      "inputs": [
        {
          "internalType": "address",
          "name": "account",
          "type": "address"
        }
      ],
      "name": "OwnableUnauthorizedAccount",
      "type": "error"
    },
    {
      "inputs": [],
      "name": "ReentrancyGuardReentrantCall",
      "type": "error"
    },
    {
      "inputs": [
        {
          "internalType": "uint256",
          "name": "requested",
          "type": "uint256"
        },
        {
          "internalType": "uint256",
          "name": "maximum",
          "type": "uint256"
        }
      ],
      "name": "RewardTooLarge",
      "type": "error"
    },
    {
      "anonymous": false,
      "inputs": [
        {
          "indexed": true,
          "internalType": "address",
          "name": "agent",
          "type": "address"
        },
        {
          "indexed": false,
          "internalType": "uint256",
          "name": "amount",
          "type": "uint256"
        }
      ],
      "name": "AgentFunded",
      "type": "event"
    },
    {
      "anonymous": false,
      "inputs": [
        {
          "indexed": true,
          "internalType": "address",
          "name": "owner",
          "type": "address"
        },
        {
          "indexed": true,
          "internalType": "address",
          "name": "spender",
          "type": "address"
        },
        {
          "indexed": false,
          "internalType": "uint256",
          "name": "value",
          "type": "uint256"
        }
      ],
      "name": "Approval",
      "type": "event"
    },
    {
      "anonymous": false,
      "inputs": [
        {
          "indexed": true,
          "internalType": "address",
          "name": "previousOwner",
          "type": "address"
        },
        {
          "indexed": true,
          "internalType": "address",
          "name": "newOwner",
          "type": "address"
        }
      ],
      "name": "OwnershipTransferred",
      "type": "event"
    },
    {
      "anonymous": false,
      "inputs": [
        {
          "indexed": false,
          "internalType": "address",
          "name": "account",
          "type": "address"
        }
      ],
      "name": "Paused",
      "type": "event"
    },
    {
      "anonymous": false,
      "inputs": [
        {
          "indexed": true,
          "internalType": "address",
          "name": "agent",
          "type": "address"
        },
        {
          "indexed": false,
          "internalType": "uint256",
          "name": "amount",
          "type": "uint256"
        },
        {
          "indexed": false,
          "internalType": "uint256",
          "name": "totalMinted",
          "type": "uint256"
        }
      ],
      "name": "RewardMinted",
      "type": "event"
    },
    {
      "anonymous": false,
      "inputs": [
        {
          "indexed": true,
          "internalType": "address",
          "name": "from",
          "type": "address"
        },
        {
          "indexed": true,
          "internalType": "address",
          "name": "to",
          "type": "address"
        },
        {
          "indexed": false,
          "internalType": "uint256",
          "name": "value",
          "type": "uint256"
        }
      ],
      "name": "Transfer",
      "type": "event"
    },
    {
      "anonymous": false,
      "inputs": [
        {
          "indexed": true,
          "internalType": "address",
          "name": "oldTreasury",
          "type": "address"
        },
        {
          "indexed": true,
          "internalType": "address",
          "name": "newTreasury",
          "type": "address"
        }
      ],
      "name": "TreasuryUpdated",
      "type": "event"
    },
    {
      "anonymous": false,
      "inputs": [
        {
          "indexed": false,
          "internalType": "address",
          "name": "account",
          "type": "address"
        }
      ],
      "name": "Unpaused",
      "type": "event"
    },
    {
      "inputs": [],
      "name": "ENTRY_FEE",
      "outputs": [
        {
          "internalType": "uint256",
          "name": "",
          "type": "uint256"
        }
      ],
      "stateMutability": "view",
      "type": "function"
    },
    {
      "inputs": [],
      "name": "INITIAL_AGENT_BALANCE",
      "outputs": [
        {
          "internalType": "uint256",
          "name": "",
          "type": "uint256"
        }
      ],
      "stateMutability": "view",
      "type": "function"
    },
    {
      "inputs": [],
      "name": "MAX_SINGLE_REWARD",
      "outputs": [
        {
          "internalType": "uint256",
          "name": "",
          "type": "uint256"
        }
      ],
      "stateMutability": "view",
      "type": "function"
    },
    {
      "inputs": [
        {
          "internalType": "address",
          "name": "owner",
          "type": "address"
        },
        {
          "internalType": "address",
          "name": "spender",
          "type": "address"
        }
      ],
      "name": "allowance",
      "outputs": [
        {
          "internalType": "uint256",
          "name": "",
          "type": "uint256"
        }
      ],
      "stateMutability": "view",
      "type": "function"
    },
    {
      "inputs": [
        {
          "internalType": "address",
          "name": "spender",
          "type": "address"
        },
        {
          "internalType": "uint256",
          "name": "value",
          "type": "uint256"
        }
      ],
      "name": "approve",
      "outputs": [
        {
          "internalType": "bool",
          "name": "",
          "type": "bool"
        }
      ],
      "stateMutability": "nonpayable",
      "type": "function"
    },
    {
      "inputs": [
        {
          "internalType": "address",
          "name": "account",
          "type": "address"
        }
      ],
      "name": "balanceOf",
      "outputs": [
        {
          "internalType": "uint256",
          "name": "",
          "type": "uint256"
        }
      ],
      "stateMutability": "view",
      "type": "function"
    },
    {
      "inputs": [],
      "name": "decimals",
      "outputs": [
        {
          "internalType": "uint8",
          "name": "",
          "type": "uint8"
        }
      ],
      "stateMutability": "view",
      "type": "function"
    },
    {
      "inputs": [
        {
          "internalType": "address",
          "name": "agent",
          "type": "address"
        }
      ],
      "name": "fundAgent",
      "outputs": [],
      "stateMutability": "nonpayable",
      "type": "function"
    },
    {
      "inputs": [
        {
          "internalType": "address[]",
          "name": "agents",
          "type": "address[]"
        }
      ],
      "name": "fundAgents",
      "outputs": [],
      "stateMutability": "nonpayable",
      "type": "function"
    },
    {
      "inputs": [],
      "name": "getTokenStats",
      "outputs": [
        {
          "internalType": "uint256",
          "name": "supply",
          "type": "uint256"
        },
        {
          "internalType": "uint256",
          "name": "rewardsMinted",
          "type": "uint256"
        },
        {
          "internalType": "uint256",
          "name": "agentsFunded",
          "type": "uint256"
        }
      ],
      "stateMutability": "view",
      "type": "function"
    },
    {
      "inputs": [
        {
          "internalType": "address",
          "name": "agent",
          "type": "address"
        },
        {
          "internalType": "uint256",
          "name": "amount",
          "type": "uint256"
        }
      ],
      "name": "mintReward",
      "outputs": [],
      "stateMutability": "nonpayable",
      "type": "function"
    },
    {
      "inputs": [],
      "name": "name",
      "outputs": [
        {
          "internalType": "string",
          "name": "",
          "type": "string"
        }
      ],
      "stateMutability": "view",
      "type": "function"
    },
    {
      "inputs": [],
      "name": "owner",
      "outputs": [
        {
          "internalType": "address",
          "name": "",
          "type": "address"
        }
      ],
      "stateMutability": "view",
      "type": "function"
    },
    {
      "inputs": [],
      "name": "pause",
      "outputs": [],
      "stateMutability": "nonpayable",
      "type": "function"
    },
    {
      "inputs": [],
      "name": "paused",
      "outputs": [
        {
          "internalType": "bool",
          "name": "",
          "type": "bool"
        }
      ],
      "stateMutability": "view",
      "type": "function"
    },
    {
      "inputs": [],
      "name": "renounceOwnership",
      "outputs": [],
      "stateMutability": "nonpayable",
      "type": "function"
    },
    {
      "inputs": [
        {
          "internalType": "address",
          "name": "_treasury",
          "type": "address"
        }
      ],
      "name": "setWorldTreasury",
      "outputs": [],
      "stateMutability": "nonpayable",
      "type": "function"
    },
    {
      "inputs": [],
      "name": "symbol",
      "outputs": [
        {
          "internalType": "string",
          "name": "",
          "type": "string"
        }
      ],
      "stateMutability": "view",
      "type": "function"
    },
    {
      "inputs": [],
      "name": "totalAgentsFunded",
      "outputs": [
        {
          "internalType": "uint256",
          "name": "",
          "type": "uint256"
        }
      ],
      "stateMutability": "view",
      "type": "function"
    },
    {
      "inputs": [],
      "name": "totalRewardsMinted",
      "outputs": [
        {
          "internalType": "uint256",
          "name": "",
          "type": "uint256"
        }
      ],
      "stateMutability": "view",
      "type": "function"
    },
    {
      "inputs": [],
      "name": "totalSupply",
      "outputs": [
        {
          "internalType": "uint256",
          "name": "",
          "type": "uint256"
        }
      ],
      "stateMutability": "view",
      "type": "function"
    },
    {
      "inputs": [
        {
          "internalType": "address",
          "name": "to",
          "type": "address"
        },
        {
          "internalType": "uint256",
          "name": "value",
          "type": "uint256"
        }
      ],
      "name": "transfer",
      "outputs": [
        {
          "internalType": "bool",
          "name": "",
          "type": "bool"
        }
      ],
      "stateMutability": "nonpayable",
      "type": "function"
    },
    {
      "inputs": [
        {
          "internalType": "address",
          "name": "from",
          "type": "address"
        },
        {
          "internalType": "address",
          "name": "to",
          "type": "address"
        },
        {
          "internalType": "uint256",
          "name": "value",
          "type": "uint256"
        }
      ],
      "name": "transferFrom",
      "outputs": [
        {
          "internalType": "bool",
          "name": "",
          "type": "bool"
        }
      ],
      "stateMutability": "nonpayable",
      "type": "function"
    },
    {
      "inputs": [
        {
          "internalType": "address",
          "name": "newOwner",
          "type": "address"
        }
      ],
      "name": "transferOwnership",
      "outputs": [],
      "stateMutability": "nonpayable",
      "type": "function"
    },
    {
      "inputs": [],
      "name": "unpause",
      "outputs": [],
      "stateMutability": "nonpayable",
      "type": "function"
    },
    {
      "inputs": [],
      "name": "worldTreasury",
      "outputs": [
        {
          "internalType": "address",
          "name": "",
          "type": "address"
        }
      ],
      "stateMutability": "view",
      "type": "function"
    }
  ],
  "bytecode": "0x60806040523480156200001157600080fd5b50336040518060400160405280600b81526020016a26b7b730b2102a37b5b2b760a91b8152506040518060400160405280600381526020016226a7a760e91b81525081600390816200006491906200037d565b5060046200007382826200037d565b5050506001600160a01b038116620000a657604051631e4fbdf760e01b8152600060048201526024015b60405180910390fd5b620000b181620000d3565b506001600655620000cd3369d3c21bcecceda100000062000125565b62000471565b600580546001600160a01b038381166001600160a01b0319831681179093556040519116919082907f8be0079c531659141344cd1fd0a4f28419497f9722a3daafe3b4186f6b6457e090600090a35050565b6001600160a01b038216620001515760405163ec442f0560e01b8152600060048201526024016200009d565b6200015f6000838362000163565b5050565b6200016d6200017f565b6200017a838383620001a6565b505050565b60075460ff1615620001a45760405163d93c066560e01b815260040160405180910390fd5b565b6001600160a01b038316620001d5578060026000828254620001c9919062000449565b90915550620002499050565b6001600160a01b038316600090815260208190526040902054818110156200022a5760405163391434e360e21b81526001600160a01b038516600482015260248101829052604481018390526064016200009d565b6001600160a01b03841660009081526020819052604090209082900390555b6001600160a01b038216620002675760028054829003905562000286565b6001600160a01b03821660009081526020819052604090208054820190555b816001600160a01b0316836001600160a01b03167fddf252ad1be2c89b69c2b068fc378daa952ba7f163c4a11628f55a4df523b3ef83604051620002cc91815260200190565b60405180910390a3505050565b634e487b7160e01b600052604160045260246000fd5b600181811c908216806200030457607f821691505b6020821081036200032557634e487b7160e01b600052602260045260246000fd5b50919050565b601f8211156200017a57600081815260208120601f850160051c81016020861015620003545750805b601f850160051c820191505b81811015620003755782815560010162000360565b505050505050565b81516001600160401b03811115620003995762000399620002d9565b620003b181620003aa8454620002ef565b846200032b565b602080601f831160018114620003e95760008415620003d05750858301515b600019600386901b1c1916600185901b17855562000375565b600085815260208120601f198616915b828110156200041a57888601518255948401946001909101908401620003f9565b5085821015620004395787850151600019600388901b60f8161c191681555b5050505050600190811b01905550565b808201808211156200046b57634e487b7160e01b600052601160045260246000fd5b92915050565b610faa80620004816000396000f3fe608060405234801561001057600080fd5b506004361061018e5760003560e01c80638da5cb5b116100de578063c15ebc6811610097578063f2fde38b11610071578063f2fde38b1461035d578063f6d361cc14610370578063fc97d87a14610380578063ff40441b1461039357600080fd5b8063c15ebc681461030b578063d9c801081461031b578063dd62ed3e1461032457600080fd5b80638da5cb5b1461029557806395d89b41146102ba5780639a49090e146102c25780639e28a731146102d5578063a9059cbb146102e8578063a93dbfa8146102fb57600080fd5b8063313ce5671161014b5780635c975abb116101255780635c975abb1461025157806370a082311461025c578063715018a6146102855780638456cb591461028d57600080fd5b8063313ce5671461023157806334c67103146102405780633f4ba83a1461024957600080fd5b806306fdde0314610193578063095ea7b3146101b1578063097cd9bf146101d457806318160ddd146101f757806323b872dd1461020957806328dccdd81461021c575b600080fd5b61019b6103ab565b6040516101a89190610d69565b60405180910390f35b6101c46101bf366004610dd3565b61043d565b60405190151581526020016101a8565b6101dc610457565b604080519384526020840192909252908201526060016101a8565b6002545b6040519081526020016101a8565b6101c4610217366004610dfd565b610476565b61022f61022a366004610e39565b61049a565b005b604051601281526020016101a8565b6101fb60095481565b61022f610549565b60075460ff166101c4565b6101fb61026a366004610e39565b6001600160a01b031660009081526020819052604090205490565b61022f61055b565b61022f61056d565b6005546001600160a01b03165b6040516001600160a01b0390911681526020016101a8565b61019b61057d565b61022f6102d0366004610dd3565b61058c565b61022f6102e3366004610e39565b6106a0565b6101c46102f6366004610dd3565b610729565b6101fb683635c9adc5dea0000081565b6101fb680ad78ebc5ac620000081565b6101fb60085481565b6101fb610332366004610e5b565b6001600160a01b03918216600090815260016020908152604080832093909416825291909152205490565b61022f61036b366004610e39565b610737565b6101fb68056bc75e2d6310000081565b61022f61038e366004610e8e565b610772565b6007546102a29061010090046001600160a01b031681565b6060600380546103ba90610f03565b80601f01602080910402602001604051908101604052809291908181526020018280546103e690610f03565b80156104335780601f1061040857610100808354040283529160200191610433565b820191906000526020600020905b81548152906001019060200180831161041657829003601f168201915b5050505050905090565b60003361044b8185856108b2565b60019150505b92915050565b600080600061046560025490565b600854600954925092509250909192565b6000336104848582856108c4565b61048f858585610943565b506001949350505050565b6104a26109a2565b6104aa6109cf565b6104b26109f9565b6001600160a01b0381166104d957604051635697b36760e01b815260040160405180910390fd5b6104ec81680ad78ebc5ac6200000610a1d565b600980546001019055604051680ad78ebc5ac620000081526001600160a01b038216907f1a325fd86785b579f3232a9f2bf846b383fe2ae830bd433c25316211dc60cd939060200160405180910390a26105466001600655565b50565b6105516109a2565b610559610a53565b565b6105636109a2565b6105596000610aa5565b6105756109a2565b610559610af7565b6060600480546103ba90610f03565b6105946109cf565b61059c6109f9565b60075461010090046001600160a01b031633146105cc57604051632298d39d60e11b815260040160405180910390fd5b6001600160a01b0382166105f357604051635697b36760e01b815260040160405180910390fd5b683635c9adc5dea000008111156106345760405163499c160960e11b815260048101829052683635c9adc5dea0000060248201526044015b60405180910390fd5b61063e8282610a1d565b600880548201908190556040516001600160a01b038416917f3ab3e8ad6923a956799ae3fe031dfa1cb6a25c9743413b0c4ca812a87b02202a9161068a91858252602082015260400190565b60405180910390a261069c6001600655565b5050565b6106a86109a2565b6001600160a01b0381166106cf5760405163cfe2ea6360e01b815260040160405180910390fd5b600780546001600160a01b03838116610100818102610100600160a81b031985161790945560405193909204169182907f4ab5be82436d353e61ca18726e984e561f5c1cc7c6d38b29d2553c790434705a90600090a35050565b60003361044b818585610943565b61073f6109a2565b6001600160a01b03811661076957604051631e4fbdf760e01b81526000600482015260240161062b565b61054681610aa5565b61077a6109a2565b6107826109cf565b61078a6109f9565b8060008190036107ad57604051636db8038560e11b815260040160405180910390fd5b60648111156107d95760405163bb1cb70b60e01b8152600481018290526064602482015260440161062b565b60005b8181101561089e5760008484838181106107f8576107f8610f3d565b905060200201602081019061080d9190610e39565b90506001600160a01b03811661083657604051635697b36760e01b815260040160405180910390fd5b61084981680ad78ebc5ac6200000610a1d565b806001600160a01b03167f1a325fd86785b579f3232a9f2bf846b383fe2ae830bd433c25316211dc60cd93680ad78ebc5ac620000060405161088d91815260200190565b60405180910390a2506001016107dc565b5060098054909101905561069c6001600655565b6108bf8383836001610b34565b505050565b6001600160a01b0383811660009081526001602090815260408083209386168352929052205460001981101561093d578181101561092e57604051637dc7a0d960e11b81526001600160a01b0384166004820152602481018290526044810183905260640161062b565b61093d84848484036000610b34565b50505050565b6001600160a01b03831661096d57604051634b637e8f60e11b81526000600482015260240161062b565b6001600160a01b0382166109975760405163ec442f0560e01b81526000600482015260240161062b565b6108bf838383610c09565b6005546001600160a01b031633146105595760405163118cdaa760e01b815233600482015260240161062b565b6002600654036109f257604051633ee5aeb560e01b815260040160405180910390fd5b6002600655565b60075460ff16156105595760405163d93c066560e01b815260040160405180910390fd5b6001600160a01b038216610a475760405163ec442f0560e01b81526000600482015260240161062b565b61069c60008383610c09565b610a5b610c1c565b6007805460ff191690557f5db9ee0a495bf2e6ff9c91a7834c1ba4fdd244a5e8aa4e537bd38aeae4b073aa335b6040516001600160a01b03909116815260200160405180910390a1565b600580546001600160a01b038381166001600160a01b0319831681179093556040519116919082907f8be0079c531659141344cd1fd0a4f28419497f9722a3daafe3b4186f6b6457e090600090a35050565b610aff6109f9565b6007805460ff191660011790557f62e78cea01bee320cd4e420270b5ea74000d11b0c9f74754ebdbfc544b05a258610a883390565b6001600160a01b038416610b5e5760405163e602df0560e01b81526000600482015260240161062b565b6001600160a01b038316610b8857604051634a1406b160e11b81526000600482015260240161062b565b6001600160a01b038085166000908152600160209081526040808320938716835292905220829055801561093d57826001600160a01b0316846001600160a01b03167f8c5be1e5ebec7d5bd14f71427d1e84f3dd0314c0f7b2291e5b200ac8c7c3b92584604051610bfb91815260200190565b60405180910390a350505050565b610c116109f9565b6108bf838383610c3f565b60075460ff1661055957604051638dfc202b60e01b815260040160405180910390fd5b6001600160a01b038316610c6a578060026000828254610c5f9190610f53565b90915550610cdc9050565b6001600160a01b03831660009081526020819052604090205481811015610cbd5760405163391434e360e21b81526001600160a01b0385166004820152602481018290526044810183905260640161062b565b6001600160a01b03841660009081526020819052604090209082900390555b6001600160a01b038216610cf857600280548290039055610d17565b6001600160a01b03821660009081526020819052604090208054820190555b816001600160a01b0316836001600160a01b03167fddf252ad1be2c89b69c2b068fc378daa952ba7f163c4a11628f55a4df523b3ef83604051610d5c91815260200190565b60405180910390a3505050565b600060208083528351808285015260005b81811015610d9657858101830151858201604001528201610d7a565b506000604082860101526040601f19601f8301168501019250505092915050565b80356001600160a01b0381168114610dce57600080fd5b919050565b60008060408385031215610de657600080fd5b610def83610db7565b946020939093013593505050565b600080600060608486031215610e1257600080fd5b610e1b84610db7565b9250610e2960208501610db7565b9150604084013590509250925092565b600060208284031215610e4b57600080fd5b610e5482610db7565b9392505050565b60008060408385031215610e6e57600080fd5b610e7783610db7565b9150610e8560208401610db7565b90509250929050565b60008060208385031215610ea157600080fd5b823567ffffffffffffffff80821115610eb957600080fd5b818501915085601f830112610ecd57600080fd5b813581811115610edc57600080fd5b8660208260051b8501011115610ef157600080fd5b60209290920196919550909350505050565b600181811c90821680610f1757607f821691505b602082108103610f3757634e487b7160e01b600052602260045260246000fd5b50919050565b634e487b7160e01b600052603260045260246000fd5b8082018082111561045157634e487b7160e01b600052601160045260246000fdfea2646970667358221220c32d69d34455759d773fef9510098979c716f6793c0e1e9f4f5b54f99cbbe01e64736f6c63430008140033",
  "linkReferences": {},
  "deployedLinkReferences": {}
}